No.     Time           Source                Destination           Protocol Length Info
1217350 2303.735257000 host                  16.0                  USB      65     URB_CONTROL out

Frame 1217350: 65 bytes on wire (520 bits), 65 bytes captured (520 bits) on interface 0
USB URB
    URB id: 0xffff8800ca6c5300
    URB type: URB_SUBMIT ('S')
    URB transfer type: URB_CONTROL (0x02)
    Endpoint: 0x00, Direction: OUT
        0... .... = Direction: OUT (0)
        .000 0000 = Endpoint value: 0
    Device: 16
    URB bus id: 3
    Device setup request: relevant (0)
    Data: present (0)
    URB sec: 1444452005
    URB usec: 459297
    URB status: Operation now in progress (-EINPROGRESS) (-115)
    URB length [bytes]: 1
    Data length [bytes]: 1
    [Response in: 1217351]
URB setup
    bmRequestType: 0x40
        0... .... = Direction: Host-to-device
        .10. .... = Type: Vendor (0x02)
        ...0 0000 = Recipient: Device (0x00)
    bRequest: 160
    wValue: 0x7f92
    wIndex: 0
    wLength: 1
Leftover Capture Data: 01

0000  00 53 6c ca 00 88 ff ff 53 02 00 10 03 00 00 00   .Sl.....S.......
0010  a5 96 18 56 00 00 00 00 21 02 07 00 8d ff ff ff   ...V....!.......
0020  01 00 00 00 01 00 00 00 40 a0 92 7f 00 00 01 00   ........@.......
0030  00 00 00 00 00 00 00 00 00 00 00 00 00 00 00 00   ................
0040  01                                                .

No.     Time           Source                Destination           Protocol Length Info
1217354 2303.737527000 host                  16.0                  USB      65     URB_CONTROL out

Frame 1217354: 65 bytes on wire (520 bits), 65 bytes captured (520 bits) on interface 0
USB URB
    URB id: 0xffff880736a56840
    URB type: URB_SUBMIT ('S')
    URB transfer type: URB_CONTROL (0x02)
    Endpoint: 0x00, Direction: OUT
        0... .... = Direction: OUT (0)
        .000 0000 = Endpoint value: 0
    Device: 16
    URB bus id: 3
    Device setup request: relevant (0)
    Data: present (0)
    URB sec: 1444452005
    URB usec: 461567
    URB status: Operation now in progress (-EINPROGRESS) (-115)
    URB length [bytes]: 1
    Data length [bytes]: 1
    [Response in: 1217355]
URB setup
    bmRequestType: 0x40
        0... .... = Direction: Host-to-device
        .10. .... = Type: Vendor (0x02)
        ...0 0000 = Recipient: Device (0x00)
    bRequest: 160
    wValue: 0xe600
    wIndex: 0
    wLength: 1
Leftover Capture Data: 01

0000  40 68 a5 36 07 88 ff ff 53 02 00 10 03 00 00 00   @h.6....S.......
0010  a5 96 18 56 00 00 00 00 ff 0a 07 00 8d ff ff ff   ...V............
0020  01 00 00 00 01 00 00 00 40 a0 00 e6 00 00 01 00   ........@.......
0030  00 00 00 00 00 00 00 00 00 00 00 00 00 00 00 00   ................
0040  01                                                .

No.     Time           Source                Destination           Protocol Length Info
1217370 2303.739811000 host                  16.0                  USB      65     URB_CONTROL out

Frame 1217370: 65 bytes on wire (520 bits), 65 bytes captured (520 bits) on interface 0
USB URB
    URB id: 0xffff880736a56780
    URB type: URB_SUBMIT ('S')
    URB transfer type: URB_CONTROL (0x02)
    Endpoint: 0x00, Direction: OUT
        0... .... = Direction: OUT (0)
        .000 0000 = Endpoint value: 0
    Device: 16
    URB bus id: 3
    Device setup request: relevant (0)
    Data: present (0)
    URB sec: 1444452005
    URB usec: 463851
    URB status: Operation now in progress (-EINPROGRESS) (-115)
    URB length [bytes]: 1
    Data length [bytes]: 1
    [Response in: 1217371]
URB setup
    bmRequestType: 0x40
        0... .... = Direction: Host-to-device
        .10. .... = Type: Vendor (0x02)
        ...0 0000 = Recipient: Device (0x00)
    bRequest: 160
    wValue: 0x7f92
    wIndex: 0
    wLength: 1
Leftover Capture Data: 01

0000  80 67 a5 36 07 88 ff ff 53 02 00 10 03 00 00 00   .g.6....S.......
0010  a5 96 18 56 00 00 00 00 eb 13 07 00 8d ff ff ff   ...V............
0020  01 00 00 00 01 00 00 00 40 a0 92 7f 00 00 01 00   ........@.......
0030  00 00 00 00 00 00 00 00 00 00 00 00 00 00 00 00   ................
0040  01                                                .

No.     Time           Source                Destination           Protocol Length Info
1217372 2303.742093000 host                  16.0                  USB      65     URB_CONTROL out

Frame 1217372: 65 bytes on wire (520 bits), 65 bytes captured (520 bits) on interface 0
USB URB
    URB id: 0xffff880736a566c0
    URB type: URB_SUBMIT ('S')
    URB transfer type: URB_CONTROL (0x02)
    Endpoint: 0x00, Direction: OUT
        0... .... = Direction: OUT (0)
        .000 0000 = Endpoint value: 0
    Device: 16
    URB bus id: 3
    Device setup request: relevant (0)
    Data: present (0)
    URB sec: 1444452005
    URB usec: 466133
    URB status: Operation now in progress (-EINPROGRESS) (-115)
    URB length [bytes]: 1
    Data length [bytes]: 1
    [Response in: 1217373]
URB setup
    bmRequestType: 0x40
        0... .... = Direction: Host-to-device
        .10. .... = Type: Vendor (0x02)
        ...0 0000 = Recipient: Device (0x00)
    bRequest: 160
    wValue: 0xe600
    wIndex: 0
    wLength: 1
Leftover Capture Data: 01

0000  c0 66 a5 36 07 88 ff ff 53 02 00 10 03 00 00 00   .f.6....S.......
0010  a5 96 18 56 00 00 00 00 d5 1c 07 00 8d ff ff ff   ...V............
0020  01 00 00 00 01 00 00 00 40 a0 00 e6 00 00 01 00   ........@.......
0030  00 00 00 00 00 00 00 00 00 00 00 00 00 00 00 00   ................
0040  01                                                .

No.     Time           Source                Destination           Protocol Length Info
1217376 2303.744345000 host                  16.0                  USB      80     URB_CONTROL out

Frame 1217376: 80 bytes on wire (640 bits), 80 bytes captured (640 bits) on interface 0
USB URB
    URB id: 0xffff880736a56cc0
    URB type: URB_SUBMIT ('S')
    URB transfer type: URB_CONTROL (0x02)
    Endpoint: 0x00, Direction: OUT
        0... .... = Direction: OUT (0)
        .000 0000 = Endpoint value: 0
    Device: 16
    URB bus id: 3
    Device setup request: relevant (0)
    Data: present (0)
    URB sec: 1444452005
    URB usec: 468385
    URB status: Operation now in progress (-EINPROGRESS) (-115)
    URB length [bytes]: 16
    Data length [bytes]: 16
    [Response in: 1217377]
URB setup
    bmRequestType: 0x40
        0... .... = Direction: Host-to-device
        .10. .... = Type: Vendor (0x02)
        ...0 0000 = Recipient: Device (0x00)
    bRequest: 160
    wValue: 0x0368
    wIndex: 0
    wLength: 16
Leftover Capture Data: 90e668e0ff74fff0e0b40b04eff0d322

0000  c0 6c a5 36 07 88 ff ff 53 02 00 10 03 00 00 00   .l.6....S.......
0010  a5 96 18 56 00 00 00 00 a1 25 07 00 8d ff ff ff   ...V.....%......
0020  10 00 00 00 10 00 00 00 40 a0 68 03 00 00 10 00   ........@.h.....
0030  00 00 00 00 00 00 00 00 00 00 00 00 00 00 00 00   ................
0040  90 e6 68 e0 ff 74 ff f0 e0 b4 0b 04 ef f0 d3 22   ..h..t........."

No.     Time           Source                Destination           Protocol Length Info
1217378 2303.746604000 host                  16.0                  USB      70     URB_CONTROL out

Frame 1217378: 70 bytes on wire (560 bits), 70 bytes captured (560 bits) on interface 0
USB URB
    URB id: 0xffff8800ca6c5600
    URB type: URB_SUBMIT ('S')
    URB transfer type: URB_CONTROL (0x02)
    Endpoint: 0x00, Direction: OUT
        0... .... = Direction: OUT (0)
        .000 0000 = Endpoint value: 0
    Device: 16
    URB bus id: 3
    Device setup request: relevant (0)
    Data: present (0)
    URB sec: 1444452005
    URB usec: 470644
    URB status: Operation now in progress (-EINPROGRESS) (-115)
    URB length [bytes]: 6
    Data length [bytes]: 6
    [Response in: 1217379]
URB setup
    bmRequestType: 0x40
        0... .... = Direction: Host-to-device
        .10. .... = Type: Vendor (0x02)
        ...0 0000 = Recipient: Device (0x00)
    bRequest: 160
    wValue: 0x0378
    wIndex: 0
    wLength: 6
Leftover Capture Data: 90e668eff0c3

0000  00 56 6c ca 00 88 ff ff 53 02 00 10 03 00 00 00   .Vl.....S.......
0010  a5 96 18 56 00 00 00 00 74 2e 07 00 8d ff ff ff   ...V....t.......
0020  06 00 00 00 06 00 00 00 40 a0 78 03 00 00 06 00   ........@.x.....
0030  00 00 00 00 00 00 00 00 00 00 00 00 00 00 00 00   ................
0040  90 e6 68 ef f0 c3                                 ..h...

No.     Time           Source                Destination           Protocol Length Info
1217380 2303.748899000 host                  16.0                  USB      65     URB_CONTROL out

Frame 1217380: 65 bytes on wire (520 bits), 65 bytes captured (520 bits) on interface 0
USB URB
    URB id: 0xffff8800ca6c5780
    URB type: URB_SUBMIT ('S')
    URB transfer type: URB_CONTROL (0x02)
    Endpoint: 0x00, Direction: OUT
        0... .... = Direction: OUT (0)
        .000 0000 = Endpoint value: 0
    Device: 16
    URB bus id: 3
    Device setup request: relevant (0)
    Data: present (0)
    URB sec: 1444452005
    URB usec: 472939
    URB status: Operation now in progress (-EINPROGRESS) (-115)
    URB length [bytes]: 1
    Data length [bytes]: 1
    [Response in: 1217381]
URB setup
    bmRequestType: 0x40
        0... .... = Direction: Host-to-device
        .10. .... = Type: Vendor (0x02)
        ...0 0000 = Recipient: Device (0x00)
    bRequest: 160
    wValue: 0x037e
    wIndex: 0
    wLength: 1
Leftover Capture Data: 22

0000  80 57 6c ca 00 88 ff ff 53 02 00 10 03 00 00 00   .Wl.....S.......
0010  a5 96 18 56 00 00 00 00 6b 37 07 00 8d ff ff ff   ...V....k7......
0020  01 00 00 00 01 00 00 00 40 a0 7e 03 00 00 01 00   ........@.~.....
0030  00 00 00 00 00 00 00 00 00 00 00 00 00 00 00 00   ................
0040  22                                                "

No.     Time           Source                Destination           Protocol Length Info
1217382 2303.751183000 host                  16.0                  USB      80     URB_CONTROL out

Frame 1217382: 80 bytes on wire (640 bits), 80 bytes captured (640 bits) on interface 0
USB URB
    URB id: 0xffff8800ca6c5540
    URB type: URB_SUBMIT ('S')
    URB transfer type: URB_CONTROL (0x02)
    Endpoint: 0x00, Direction: OUT
        0... .... = Direction: OUT (0)
        .000 0000 = Endpoint value: 0
    Device: 16
    URB bus id: 3
    Device setup request: relevant (0)
    Data: present (0)
    URB sec: 1444452005
    URB usec: 475223
    URB status: Operation now in progress (-EINPROGRESS) (-115)
    URB length [bytes]: 16
    Data length [bytes]: 16
    [Response in: 1217383]
URB setup
    bmRequestType: 0x40
        0... .... = Direction: Host-to-device
        .10. .... = Type: Vendor (0x02)
        ...0 0000 = Recipient: Device (0x00)
    bRequest: 160
    wValue: 0x01b5
    wIndex: 0
    wLength: 16
Leftover Capture Data: 907fe9e064a360030202c5a3e0750800

0000  40 55 6c ca 00 88 ff ff 53 02 00 10 03 00 00 00   @Ul.....S.......
0010  a5 96 18 56 00 00 00 00 57 40 07 00 8d ff ff ff   ...V....W@......
0020  10 00 00 00 10 00 00 00 40 a0 b5 01 00 00 10 00   ........@.......
0030  00 00 00 00 00 00 00 00 00 00 00 00 00 00 00 00   ................
0040  90 7f e9 e0 64 a3 60 03 02 02 c5 a3 e0 75 08 00   ....d.`......u..

No.     Time           Source                Destination           Protocol Length Info
1217386 2303.753494000 host                  16.0                  USB      80     URB_CONTROL out

Frame 1217386: 80 bytes on wire (640 bits), 80 bytes captured (640 bits) on interface 0
USB URB
    URB id: 0xffff88074b9ac240
    URB type: URB_SUBMIT ('S')
    URB transfer type: URB_CONTROL (0x02)
    Endpoint: 0x00, Direction: OUT
        0... .... = Direction: OUT (0)
        .000 0000 = Endpoint value: 0
    Device: 16
    URB bus id: 3
    Device setup request: relevant (0)
    Data: present (0)
    URB sec: 1444452005
    URB usec: 477534
    URB status: Operation now in progress (-EINPROGRESS) (-115)
    URB length [bytes]: 16
    Data length [bytes]: 16
    [Response in: 1217387]
URB setup
    bmRequestType: 0x40
        0... .... = Direction: Host-to-device
        .10. .... = Type: Vendor (0x02)
        ...0 0000 = Recipient: Device (0x00)
    bRequest: 160
    wValue: 0x01c5
    wIndex: 0
    wLength: 16
Leftover Capture Data: f509a3e0fee4ee4208907feee0750a00

0000  40 c2 9a 4b 07 88 ff ff 53 02 00 10 03 00 00 00   @..K....S.......
0010  a5 96 18 56 00 00 00 00 5e 49 07 00 8d ff ff ff   ...V....^I......
0020  10 00 00 00 10 00 00 00 40 a0 c5 01 00 00 10 00   ........@.......
0030  00 00 00 00 00 00 00 00 00 00 00 00 00 00 00 00   ................
0040  f5 09 a3 e0 fe e4 ee 42 08 90 7f ee e0 75 0a 00   .......B.....u..

No.     Time           Source                Destination           Protocol Length Info
1217388 2303.755787000 host                  16.0                  USB      80     URB_CONTROL out

Frame 1217388: 80 bytes on wire (640 bits), 80 bytes captured (640 bits) on interface 0
USB URB
    URB id: 0xffff88074b9ac900
    URB type: URB_SUBMIT ('S')
    URB transfer type: URB_CONTROL (0x02)
    Endpoint: 0x00, Direction: OUT
        0... .... = Direction: OUT (0)
        .000 0000 = Endpoint value: 0
    Device: 16
    URB bus id: 3
    Device setup request: relevant (0)
    Data: present (0)
    URB sec: 1444452005
    URB usec: 479827
    URB status: Operation now in progress (-EINPROGRESS) (-115)
    URB length [bytes]: 16
    Data length [bytes]: 16
    [Response in: 1217389]
URB setup
    bmRequestType: 0x40
        0... .... = Direction: Host-to-device
        .10. .... = Type: Vendor (0x02)
        ...0 0000 = Recipient: Device (0x00)
    bRequest: 160
    wValue: 0x01d5
    wIndex: 0
    wLength: 16
Leftover Capture Data: f50ba3e0fee4ee420a907fe8e0644070

0000  00 c9 9a 4b 07 88 ff ff 53 02 00 10 03 00 00 00   ...K....S.......
0010  a5 96 18 56 00 00 00 00 53 52 07 00 8d ff ff ff   ...V....SR......
0020  10 00 00 00 10 00 00 00 40 a0 d5 01 00 00 10 00   ........@.......
0030  00 00 00 00 00 00 00 00 00 00 00 00 00 00 00 00   ................
0040  f5 0b a3 e0 fe e4 ee 42 0a 90 7f e8 e0 64 40 70   .......B.....d@p

No.     Time           Source                Destination           Protocol Length Info
1217390 2303.758040000 host                  16.0                  USB      80     URB_CONTROL out

Frame 1217390: 80 bytes on wire (640 bits), 80 bytes captured (640 bits) on interface 0
USB URB
    URB id: 0xffff88074b9ac300
    URB type: URB_SUBMIT ('S')
    URB transfer type: URB_CONTROL (0x02)
    Endpoint: 0x00, Direction: OUT
        0... .... = Direction: OUT (0)
        .000 0000 = Endpoint value: 0
    Device: 16
    URB bus id: 3
    Device setup request: relevant (0)
    Data: present (0)
    URB sec: 1444452005
    URB usec: 482080
    URB status: Operation now in progress (-EINPROGRESS) (-115)
    URB length [bytes]: 16
    Data length [bytes]: 16
    [Response in: 1217391]
URB setup
    bmRequestType: 0x40
        0... .... = Direction: Host-to-device
        .10. .... = Type: Vendor (0x02)
        ...0 0000 = Recipient: Device (0x00)
    bRequest: 160
    wValue: 0x01e5
    wIndex: 0
    wLength: 16
Leftover Capture Data: 64e50b450a70030202d6e4907fc5f090

0000  00 c3 9a 4b 07 88 ff ff 53 02 00 10 03 00 00 00   ...K....S.......
0010  a5 96 18 56 00 00 00 00 20 5b 07 00 8d ff ff ff   ...V.... [......
0020  10 00 00 00 10 00 00 00 40 a0 e5 01 00 00 10 00   ........@.......
0030  00 00 00 00 00 00 00 00 00 00 00 00 00 00 00 00   ................
0040  64 e5 0b 45 0a 70 03 02 02 d6 e4 90 7f c5 f0 90   d..E.p..........

No.     Time           Source                Destination           Protocol Length Info
1217394 2303.760287000 host                  16.0                  USB      80     URB_CONTROL out

Frame 1217394: 80 bytes on wire (640 bits), 80 bytes captured (640 bits) on interface 0
USB URB
    URB id: 0xffff88074b9ac780
    URB type: URB_SUBMIT ('S')
    URB transfer type: URB_CONTROL (0x02)
    Endpoint: 0x00, Direction: OUT
        0... .... = Direction: OUT (0)
        .000 0000 = Endpoint value: 0
    Device: 16
    URB bus id: 3
    Device setup request: relevant (0)
    Data: present (0)
    URB sec: 1444452005
    URB usec: 484327
    URB status: Operation now in progress (-EINPROGRESS) (-115)
    URB length [bytes]: 16
    Data length [bytes]: 16
    [Response in: 1217395]
URB setup
    bmRequestType: 0x40
        0... .... = Direction: Host-to-device
        .10. .... = Type: Vendor (0x02)
        ...0 0000 = Recipient: Device (0x00)
    bRequest: 160
    wValue: 0x01f5
    wIndex: 0
    wLength: 16
Leftover Capture Data: 7fb4e020e3f9907fc5e0750c00f50de4

0000  80 c7 9a 4b 07 88 ff ff 53 02 00 10 03 00 00 00   ...K....S.......
0010  a5 96 18 56 00 00 00 00 e7 63 07 00 8d ff ff ff   ...V.....c......
0020  10 00 00 00 10 00 00 00 40 a0 f5 01 00 00 10 00   ........@.......
0030  00 00 00 00 00 00 00 00 00 00 00 00 00 00 00 00   ................
0040  7f b4 e0 20 e3 f9 90 7f c5 e0 75 0c 00 f5 0d e4   ... ......u.....

No.     Time           Source                Destination           Protocol Length Info
1217396 2303.762573000 host                  16.0                  USB      80     URB_CONTROL out

Frame 1217396: 80 bytes on wire (640 bits), 80 bytes captured (640 bits) on interface 0
USB URB
    URB id: 0xffff88074b9acd80
    URB type: URB_SUBMIT ('S')
    URB transfer type: URB_CONTROL (0x02)
    Endpoint: 0x00, Direction: OUT
        0... .... = Direction: OUT (0)
        .000 0000 = Endpoint value: 0
    Device: 16
    URB bus id: 3
    Device setup request: relevant (0)
    Data: present (0)
    URB sec: 1444452005
    URB usec: 486613
    URB status: Operation now in progress (-EINPROGRESS) (-115)
    URB length [bytes]: 16
    Data length [bytes]: 16
    [Response in: 1217397]
URB setup
    bmRequestType: 0x40
        0... .... = Direction: Host-to-device
        .10. .... = Type: Vendor (0x02)
        ...0 0000 = Recipient: Device (0x00)
    bRequest: 160
    wValue: 0x0205
    wIndex: 0
    wLength: 16
Leftover Capture Data: fcfdc3ed950dec950c501f74c02df582

0000  80 cd 9a 4b 07 88 ff ff 53 02 00 10 03 00 00 00   ...K....S.......
0010  a5 96 18 56 00 00 00 00 d5 6c 07 00 8d ff ff ff   ...V.....l......
0020  10 00 00 00 10 00 00 00 40 a0 05 02 00 00 10 00   ........@.......
0030  00 00 00 00 00 00 00 00 00 00 00 00 00 00 00 00   ................
0040  fc fd c3 ed 95 0d ec 95 0c 50 1f 74 c0 2d f5 82   .........P.t.-..

No.     Time           Source                Destination           Protocol Length Info
1217398 2303.764874000 host                  16.0                  USB      80     URB_CONTROL out

Frame 1217398: 80 bytes on wire (640 bits), 80 bytes captured (640 bits) on interface 0
USB URB
    URB id: 0xffff88074b9ac600
    URB type: URB_SUBMIT ('S')
    URB transfer type: URB_CONTROL (0x02)
    Endpoint: 0x00, Direction: OUT
        0... .... = Direction: OUT (0)
        .000 0000 = Endpoint value: 0
    Device: 16
    URB bus id: 3
    Device setup request: relevant (0)
    Data: present (0)
    URB sec: 1444452005
    URB usec: 488914
    URB status: Operation now in progress (-EINPROGRESS) (-115)
    URB length [bytes]: 16
    Data length [bytes]: 16
    [Response in: 1217399]
URB setup
    bmRequestType: 0x40
        0... .... = Direction: Host-to-device
        .10. .... = Type: Vendor (0x02)
        ...0 0000 = Recipient: Device (0x00)
    bRequest: 160
    wValue: 0x0215
    wIndex: 0
    wLength: 16
Leftover Capture Data: e4347ef583e0ffe5092df582e5083cf5

0000  00 c6 9a 4b 07 88 ff ff 53 02 00 10 03 00 00 00   ...K....S.......
0010  a5 96 18 56 00 00 00 00 d2 75 07 00 8d ff ff ff   ...V.....u......
0020  10 00 00 00 10 00 00 00 40 a0 15 02 00 00 10 00   ........@.......
0030  00 00 00 00 00 00 00 00 00 00 00 00 00 00 00 00   ................
0040  e4 34 7e f5 83 e0 ff e5 09 2d f5 82 e5 08 3c f5   .4~......-....<.

No.     Time           Source                Destination           Protocol Length Info
1217400 2303.767151000 host                  16.0                  USB      80     URB_CONTROL out

Frame 1217400: 80 bytes on wire (640 bits), 80 bytes captured (640 bits) on interface 0
USB URB
    URB id: 0xffff88074b9ac000
    URB type: URB_SUBMIT ('S')
    URB transfer type: URB_CONTROL (0x02)
    Endpoint: 0x00, Direction: OUT
        0... .... = Direction: OUT (0)
        .000 0000 = Endpoint value: 0
    Device: 16
    URB bus id: 3
    Device setup request: relevant (0)
    Data: present (0)
    URB sec: 1444452005
    URB usec: 491191
    URB status: Operation now in progress (-EINPROGRESS) (-115)
    URB length [bytes]: 16
    Data length [bytes]: 16
    [Response in: 1217401]
URB setup
    bmRequestType: 0x40
        0... .... = Direction: Host-to-device
        .10. .... = Type: Vendor (0x02)
        ...0 0000 = Recipient: Device (0x00)
    bRequest: 160
    wValue: 0x0225
    wIndex: 0
    wLength: 16
Leftover Capture Data: 83eff00dbd00010c80d8e50d2509f509

0000  00 c0 9a 4b 07 88 ff ff 53 02 00 10 03 00 00 00   ...K....S.......
0010  a5 96 18 56 00 00 00 00 b7 7e 07 00 8d ff ff ff   ...V.....~......
0020  10 00 00 00 10 00 00 00 40 a0 25 02 00 00 10 00   ........@.%.....
0030  00 00 00 00 00 00 00 00 00 00 00 00 00 00 00 00   ................
0040  83 ef f0 0d bd 00 01 0c 80 d8 e5 0d 25 09 f5 09   ............%...

No.     Time           Source                Destination           Protocol Length Info
1217404 2303.769402000 host                  16.0                  USB      80     URB_CONTROL out

Frame 1217404: 80 bytes on wire (640 bits), 80 bytes captured (640 bits) on interface 0
USB URB
    URB id: 0xffff880736a56c00
    URB type: URB_SUBMIT ('S')
    URB transfer type: URB_CONTROL (0x02)
    Endpoint: 0x00, Direction: OUT
        0... .... = Direction: OUT (0)
        .000 0000 = Endpoint value: 0
    Device: 16
    URB bus id: 3
    Device setup request: relevant (0)
    Data: present (0)
    URB sec: 1444452005
    URB usec: 493442
    URB status: Operation now in progress (-EINPROGRESS) (-115)
    URB length [bytes]: 16
    Data length [bytes]: 16
    [Response in: 1217405]
URB setup
    bmRequestType: 0x40
        0... .... = Direction: Host-to-device
        .10. .... = Type: Vendor (0x02)
        ...0 0000 = Recipient: Device (0x00)
    bRequest: 160
    wValue: 0x0235
    wIndex: 0
    wLength: 16
Leftover Capture Data: e50c3508f508c3e50b950df50be50a95

0000  00 6c a5 36 07 88 ff ff 53 02 00 10 03 00 00 00   .l.6....S.......
0010  a5 96 18 56 00 00 00 00 82 87 07 00 8d ff ff ff   ...V............
0020  10 00 00 00 10 00 00 00 40 a0 35 02 00 00 10 00   ........@.5.....
0030  00 00 00 00 00 00 00 00 00 00 00 00 00 00 00 00   ................
0040  e5 0c 35 08 f5 08 c3 e5 0b 95 0d f5 0b e5 0a 95   ..5.............

No.     Time           Source                Destination           Protocol Length Info
1217406 2303.771665000 host                  16.0                  USB      80     URB_CONTROL out

Frame 1217406: 80 bytes on wire (640 bits), 80 bytes captured (640 bits) on interface 0
USB URB
    URB id: 0xffff880736a56d80
    URB type: URB_SUBMIT ('S')
    URB transfer type: URB_CONTROL (0x02)
    Endpoint: 0x00, Direction: OUT
        0... .... = Direction: OUT (0)
        .000 0000 = Endpoint value: 0
    Device: 16
    URB bus id: 3
    Device setup request: relevant (0)
    Data: present (0)
    URB sec: 1444452005
    URB usec: 495705
    URB status: Operation now in progress (-EINPROGRESS) (-115)
    URB length [bytes]: 16
    Data length [bytes]: 16
    [Response in: 1217407]
URB setup
    bmRequestType: 0x40
        0... .... = Direction: Host-to-device
        .10. .... = Type: Vendor (0x02)
        ...0 0000 = Recipient: Device (0x00)
    bRequest: 160
    wValue: 0x0245
    wIndex: 0
    wLength: 16
Leftover Capture Data: 0cf50a809c907fe8e064c060030202d6

0000  80 6d a5 36 07 88 ff ff 53 02 00 10 03 00 00 00   .m.6....S.......
0010  a5 96 18 56 00 00 00 00 59 90 07 00 8d ff ff ff   ...V....Y.......
0020  10 00 00 00 10 00 00 00 40 a0 45 02 00 00 10 00   ........@.E.....
0030  00 00 00 00 00 00 00 00 00 00 00 00 00 00 00 00   ................
0040  0c f5 0a 80 9c 90 7f e8 e0 64 c0 60 03 02 02 d6   .........d.`....

No.     Time           Source                Destination           Protocol Length Info
1217408 2303.773906000 host                  16.0                  USB      80     URB_CONTROL out

Frame 1217408: 80 bytes on wire (640 bits), 80 bytes captured (640 bits) on interface 0
USB URB
    URB id: 0xffff880736a56b40
    URB type: URB_SUBMIT ('S')
    URB transfer type: URB_CONTROL (0x02)
    Endpoint: 0x00, Direction: OUT
        0... .... = Direction: OUT (0)
        .000 0000 = Endpoint value: 0
    Device: 16
    URB bus id: 3
    Device setup request: relevant (0)
    Data: present (0)
    URB sec: 1444452005
    URB usec: 497946
    URB status: Operation now in progress (-EINPROGRESS) (-115)
    URB length [bytes]: 16
    Data length [bytes]: 16
    [Response in: 1217409]
URB setup
    bmRequestType: 0x40
        0... .... = Direction: Host-to-device
        .10. .... = Type: Vendor (0x02)
        ...0 0000 = Recipient: Device (0x00)
    bRequest: 160
    wValue: 0x0255
    wIndex: 0
    wLength: 16
Leftover Capture Data: e50b450a607bc3e50b9440e50a940050

0000  40 6b a5 36 07 88 ff ff 53 02 00 10 03 00 00 00   @k.6....S.......
0010  a5 96 18 56 00 00 00 00 1a 99 07 00 8d ff ff ff   ...V............
0020  10 00 00 00 10 00 00 00 40 a0 55 02 00 00 10 00   ........@.U.....
0030  00 00 00 00 00 00 00 00 00 00 00 00 00 00 00 00   ................
0040  e5 0b 45 0a 60 7b c3 e5 0b 94 40 e5 0a 94 00 50   ..E.`{....@....P

No.     Time           Source                Destination           Protocol Length Info
1217412 2303.776215000 host                  16.0                  USB      80     URB_CONTROL out

Frame 1217412: 80 bytes on wire (640 bits), 80 bytes captured (640 bits) on interface 0
USB URB
    URB id: 0xffff880736a56b40
    URB type: URB_SUBMIT ('S')
    URB transfer type: URB_CONTROL (0x02)
    Endpoint: 0x00, Direction: OUT
        0... .... = Direction: OUT (0)
        .000 0000 = Endpoint value: 0
    Device: 16
    URB bus id: 3
    Device setup request: relevant (0)
    Data: present (0)
    URB sec: 1444452005
    URB usec: 500255
    URB status: Operation now in progress (-EINPROGRESS) (-115)
    URB length [bytes]: 16
    Data length [bytes]: 16
    [Response in: 1217413]
URB setup
    bmRequestType: 0x40
        0... .... = Direction: Host-to-device
        .10. .... = Type: Vendor (0x02)
        ...0 0000 = Recipient: Device (0x00)
    bRequest: 160
    wValue: 0x0265
    wIndex: 0
    wLength: 16
Leftover Capture Data: 08850a0c850b0d8006750c00750d40e4

0000  40 6b a5 36 07 88 ff ff 53 02 00 10 03 00 00 00   @k.6....S.......
0010  a5 96 18 56 00 00 00 00 1f a2 07 00 8d ff ff ff   ...V............
0020  10 00 00 00 10 00 00 00 40 a0 65 02 00 00 10 00   ........@.e.....
0030  00 00 00 00 00 00 00 00 00 00 00 00 00 00 00 00   ................
0040  08 85 0a 0c 85 0b 0d 80 06 75 0c 00 75 0d 40 e4   .........u..u.@.

No.     Time           Source                Destination           Protocol Length Info
1217420 2303.778571000 host                  16.0                  USB      80     URB_CONTROL out

Frame 1217420: 80 bytes on wire (640 bits), 80 bytes captured (640 bits) on interface 0
USB URB
    URB id: 0xffff880736a56d80
    URB type: URB_SUBMIT ('S')
    URB transfer type: URB_CONTROL (0x02)
    Endpoint: 0x00, Direction: OUT
        0... .... = Direction: OUT (0)
        .000 0000 = Endpoint value: 0
    Device: 16
    URB bus id: 3
    Device setup request: relevant (0)
    Data: present (0)
    URB sec: 1444452005
    URB usec: 502611
    URB status: Operation now in progress (-EINPROGRESS) (-115)
    URB length [bytes]: 16
    Data length [bytes]: 16
    [Response in: 1217421]
URB setup
    bmRequestType: 0x40
        0... .... = Direction: Host-to-device
        .10. .... = Type: Vendor (0x02)
        ...0 0000 = Recipient: Device (0x00)
    bRequest: 160
    wValue: 0x0275
    wIndex: 0
    wLength: 16
Leftover Capture Data: fcfdc3ed950dec950c501fe5092df582

0000  80 6d a5 36 07 88 ff ff 53 02 00 10 03 00 00 00   .m.6....S.......
0010  a5 96 18 56 00 00 00 00 53 ab 07 00 8d ff ff ff   ...V....S.......
0020  10 00 00 00 10 00 00 00 40 a0 75 02 00 00 10 00   ........@.u.....
0030  00 00 00 00 00 00 00 00 00 00 00 00 00 00 00 00   ................
0040  fc fd c3 ed 95 0d ec 95 0c 50 1f e5 09 2d f5 82   .........P...-..

No.     Time           Source                Destination           Protocol Length Info
1217422 2303.780923000 host                  16.0                  USB      80     URB_CONTROL out

Frame 1217422: 80 bytes on wire (640 bits), 80 bytes captured (640 bits) on interface 0
USB URB
    URB id: 0xffff880736a56c00
    URB type: URB_SUBMIT ('S')
    URB transfer type: URB_CONTROL (0x02)
    Endpoint: 0x00, Direction: OUT
        0... .... = Direction: OUT (0)
        .000 0000 = Endpoint value: 0
    Device: 16
    URB bus id: 3
    Device setup request: relevant (0)
    Data: present (0)
    URB sec: 1444452005
    URB usec: 504963
    URB status: Operation now in progress (-EINPROGRESS) (-115)
    URB length [bytes]: 16
    Data length [bytes]: 16
    [Response in: 1217423]
URB setup
    bmRequestType: 0x40
        0... .... = Direction: Host-to-device
        .10. .... = Type: Vendor (0x02)
        ...0 0000 = Recipient: Device (0x00)
    bRequest: 160
    wValue: 0x0285
    wIndex: 0
    wLength: 16
Leftover Capture Data: e5083cf583e0ff74002df582e4347ff5

0000  00 6c a5 36 07 88 ff ff 53 02 00 10 03 00 00 00   .l.6....S.......
0010  a5 96 18 56 00 00 00 00 83 b4 07 00 8d ff ff ff   ...V............
0020  10 00 00 00 10 00 00 00 40 a0 85 02 00 00 10 00   ........@.......
0030  00 00 00 00 00 00 00 00 00 00 00 00 00 00 00 00   ................
0040  e5 08 3c f5 83 e0 ff 74 00 2d f5 82 e4 34 7f f5   ..<....t.-...4..

No.     Time           Source                Destination           Protocol Length Info
1217424 2303.783262000 host                  16.0                  USB      80     URB_CONTROL out

Frame 1217424: 80 bytes on wire (640 bits), 80 bytes captured (640 bits) on interface 0
USB URB
    URB id: 0xffff880736a56840
    URB type: URB_SUBMIT ('S')
    URB transfer type: URB_CONTROL (0x02)
    Endpoint: 0x00, Direction: OUT
        0... .... = Direction: OUT (0)
        .000 0000 = Endpoint value: 0
    Device: 16
    URB bus id: 3
    Device setup request: relevant (0)
    Data: present (0)
    URB sec: 1444452005
    URB usec: 507302
    URB status: Operation now in progress (-EINPROGRESS) (-115)
    URB length [bytes]: 16
    Data length [bytes]: 16
    [Response in: 1217425]
URB setup
    bmRequestType: 0x40
        0... .... = Direction: Host-to-device
        .10. .... = Type: Vendor (0x02)
        ...0 0000 = Recipient: Device (0x00)
    bRequest: 160
    wValue: 0x0295
    wIndex: 0
    wLength: 16
Leftover Capture Data: 83eff00dbd00010c80d8907fb5e50df0

0000  40 68 a5 36 07 88 ff ff 53 02 00 10 03 00 00 00   @h.6....S.......
0010  a5 96 18 56 00 00 00 00 a6 bd 07 00 8d ff ff ff   ...V............
0020  10 00 00 00 10 00 00 00 40 a0 95 02 00 00 10 00   ........@.......
0030  00 00 00 00 00 00 00 00 00 00 00 00 00 00 00 00   ................
0040  83 ef f0 0d bd 00 01 0c 80 d8 90 7f b5 e5 0d f0   ................

No.     Time           Source                Destination           Protocol Length Info
1217428 2303.786630000 host                  16.0                  USB      80     URB_CONTROL out

Frame 1217428: 80 bytes on wire (640 bits), 80 bytes captured (640 bits) on interface 0
USB URB
    URB id: 0xffff8800ca6c5000
    URB type: URB_SUBMIT ('S')
    URB transfer type: URB_CONTROL (0x02)
    Endpoint: 0x00, Direction: OUT
        0... .... = Direction: OUT (0)
        .000 0000 = Endpoint value: 0
    Device: 16
    URB bus id: 3
    Device setup request: relevant (0)
    Data: present (0)
    URB sec: 1444452005
    URB usec: 510670
    URB status: Operation now in progress (-EINPROGRESS) (-115)
    URB length [bytes]: 16
    Data length [bytes]: 16
    [Response in: 1217429]
URB setup
    bmRequestType: 0x40
        0... .... = Direction: Host-to-device
        .10. .... = Type: Vendor (0x02)
        ...0 0000 = Recipient: Device (0x00)
    bRequest: 160
    wValue: 0x02a5
    wIndex: 0
    wLength: 16
Leftover Capture Data: 2509f509e50c3508f508c3e50b950df5

0000  00 50 6c ca 00 88 ff ff 53 02 00 10 03 00 00 00   .Pl.....S.......
0010  a5 96 18 56 00 00 00 00 ce ca 07 00 8d ff ff ff   ...V............
0020  10 00 00 00 10 00 00 00 40 a0 a5 02 00 00 10 00   ........@.......
0030  00 00 00 00 00 00 00 00 00 00 00 00 00 00 00 00   ................
0040  25 09 f5 09 e5 0c 35 08 f5 08 c3 e5 0b 95 0d f5   %.....5.........

No.     Time           Source                Destination           Protocol Length Info
1217430 2303.788979000 host                  16.0                  USB      80     URB_CONTROL out

Frame 1217430: 80 bytes on wire (640 bits), 80 bytes captured (640 bits) on interface 0
USB URB
    URB id: 0xffff8800ca6c59c0
    URB type: URB_SUBMIT ('S')
    URB transfer type: URB_CONTROL (0x02)
    Endpoint: 0x00, Direction: OUT
        0... .... = Direction: OUT (0)
        .000 0000 = Endpoint value: 0
    Device: 16
    URB bus id: 3
    Device setup request: relevant (0)
    Data: present (0)
    URB sec: 1444452005
    URB usec: 513019
    URB status: Operation now in progress (-EINPROGRESS) (-115)
    URB length [bytes]: 16
    Data length [bytes]: 16
    [Response in: 1217431]
URB setup
    bmRequestType: 0x40
        0... .... = Direction: Host-to-device
        .10. .... = Type: Vendor (0x02)
        ...0 0000 = Recipient: Device (0x00)
    bRequest: 160
    wValue: 0x02b5
    wIndex: 0
    wLength: 16
Leftover Capture Data: 0be50a950cf50a907fb4e030e29280f7

0000  c0 59 6c ca 00 88 ff ff 53 02 00 10 03 00 00 00   .Yl.....S.......
0010  a5 96 18 56 00 00 00 00 fb d3 07 00 8d ff ff ff   ...V............
0020  10 00 00 00 10 00 00 00 40 a0 b5 02 00 00 10 00   ........@.......
0030  00 00 00 00 00 00 00 00 00 00 00 00 00 00 00 00   ................
0040  0b e5 0a 95 0c f5 0a 90 7f b4 e0 30 e2 92 80 f7   ...........0....

No.     Time           Source                Destination           Protocol Length Info
1217432 2303.791273000 host                  16.0                  USB      80     URB_CONTROL out

Frame 1217432: 80 bytes on wire (640 bits), 80 bytes captured (640 bits) on interface 0
USB URB
    URB id: 0xffff8800ca6c5180
    URB type: URB_SUBMIT ('S')
    URB transfer type: URB_CONTROL (0x02)
    Endpoint: 0x00, Direction: OUT
        0... .... = Direction: OUT (0)
        .000 0000 = Endpoint value: 0
    Device: 16
    URB bus id: 3
    Device setup request: relevant (0)
    Data: present (0)
    URB sec: 1444452005
    URB usec: 515313
    URB status: Operation now in progress (-EINPROGRESS) (-115)
    URB length [bytes]: 16
    Data length [bytes]: 16
    [Response in: 1217433]
URB setup
    bmRequestType: 0x40
        0... .... = Direction: Host-to-device
        .10. .... = Type: Vendor (0x02)
        ...0 0000 = Recipient: Device (0x00)
    bRequest: 160
    wValue: 0x02c5
    wIndex: 0
    wLength: 16
Leftover Capture Data: 907fe9e0b4ac0ae4907f00f0907fb504

0000  80 51 6c ca 00 88 ff ff 53 02 00 10 03 00 00 00   .Ql.....S.......
0010  a5 96 18 56 00 00 00 00 f1 dc 07 00 8d ff ff ff   ...V............
0020  10 00 00 00 10 00 00 00 40 a0 c5 02 00 00 10 00   ........@.......
0030  00 00 00 00 00 00 00 00 00 00 00 00 00 00 00 00   ................
0040  90 7f e9 e0 b4 ac 0a e4 90 7f 00 f0 90 7f b5 04   ................

No.     Time           Source                Destination           Protocol Length Info
1217436 2303.793622000 host                  16.0                  USB      72     URB_CONTROL out

Frame 1217436: 72 bytes on wire (576 bits), 72 bytes captured (576 bits) on interface 0
USB URB
    URB id: 0xffff8800ca6c5180
    URB type: URB_SUBMIT ('S')
    URB transfer type: URB_CONTROL (0x02)
    Endpoint: 0x00, Direction: OUT
        0... .... = Direction: OUT (0)
        .000 0000 = Endpoint value: 0
    Device: 16
    URB bus id: 3
    Device setup request: relevant (0)
    Data: present (0)
    URB sec: 1444452005
    URB usec: 517662
    URB status: Operation now in progress (-EINPROGRESS) (-115)
    URB length [bytes]: 8
    Data length [bytes]: 8
    [Response in: 1217437]
URB setup
    bmRequestType: 0x40
        0... .... = Direction: Host-to-device
        .10. .... = Type: Vendor (0x02)
        ...0 0000 = Recipient: Device (0x00)
    bRequest: 160
    wValue: 0x02d5
    wIndex: 0
    wLength: 8
Leftover Capture Data: f0907fb4e04402f0

0000  80 51 6c ca 00 88 ff ff 53 02 00 10 03 00 00 00   .Ql.....S.......
0010  a5 96 18 56 00 00 00 00 1e e6 07 00 8d ff ff ff   ...V............
0020  08 00 00 00 08 00 00 00 40 a0 d5 02 00 00 08 00   ........@.......
0030  00 00 00 00 00 00 00 00 00 00 00 00 00 00 00 00   ................
0040  f0 90 7f b4 e0 44 02 f0                           .....D..

No.     Time           Source                Destination           Protocol Length Info
1217438 2303.795974000 host                  16.0                  USB      65     URB_CONTROL out

Frame 1217438: 65 bytes on wire (520 bits), 65 bytes captured (520 bits) on interface 0
USB URB
    URB id: 0xffff8800ca6c59c0
    URB type: URB_SUBMIT ('S')
    URB transfer type: URB_CONTROL (0x02)
    Endpoint: 0x00, Direction: OUT
        0... .... = Direction: OUT (0)
        .000 0000 = Endpoint value: 0
    Device: 16
    URB bus id: 3
    Device setup request: relevant (0)
    Data: present (0)
    URB sec: 1444452005
    URB usec: 520014
    URB status: Operation now in progress (-EINPROGRESS) (-115)
    URB length [bytes]: 1
    Data length [bytes]: 1
    [Response in: 1217439]
URB setup
    bmRequestType: 0x40
        0... .... = Direction: Host-to-device
        .10. .... = Type: Vendor (0x02)
        ...0 0000 = Recipient: Device (0x00)
    bRequest: 160
    wValue: 0x02dd
    wIndex: 0
    wLength: 1
Leftover Capture Data: 22

0000  c0 59 6c ca 00 88 ff ff 53 02 00 10 03 00 00 00   .Yl.....S.......
0010  a5 96 18 56 00 00 00 00 4e ef 07 00 8d ff ff ff   ...V....N.......
0020  01 00 00 00 01 00 00 00 40 a0 dd 02 00 00 01 00   ........@.......
0030  00 00 00 00 00 00 00 00 00 00 00 00 00 00 00 00   ................
0040  22                                                "

No.     Time           Source                Destination           Protocol Length Info
1217440 2303.798344000 host                  16.0                  USB      80     URB_CONTROL out

Frame 1217440: 80 bytes on wire (640 bits), 80 bytes captured (640 bits) on interface 0
USB URB
    URB id: 0xffff8800ca6c5000
    URB type: URB_SUBMIT ('S')
    URB transfer type: URB_CONTROL (0x02)
    Endpoint: 0x00, Direction: OUT
        0... .... = Direction: OUT (0)
        .000 0000 = Endpoint value: 0
    Device: 16
    URB bus id: 3
    Device setup request: relevant (0)
    Data: present (0)
    URB sec: 1444452005
    URB usec: 522384
    URB status: Operation now in progress (-EINPROGRESS) (-115)
    URB length [bytes]: 16
    Data length [bytes]: 16
    [Response in: 1217441]
URB setup
    bmRequestType: 0x40
        0... .... = Direction: Host-to-device
        .10. .... = Type: Vendor (0x02)
        ...0 0000 = Recipient: Device (0x00)
    bRequest: 160
    wValue: 0x0080
    wIndex: 0
    wLength: 16
Leftover Capture Data: 90e6b9e064a36003020198a3e0750800

0000  00 50 6c ca 00 88 ff ff 53 02 00 10 03 00 00 00   .Pl.....S.......
0010  a5 96 18 56 00 00 00 00 90 f8 07 00 8d ff ff ff   ...V............
0020  10 00 00 00 10 00 00 00 40 a0 80 00 00 00 10 00   ........@.......
0030  00 00 00 00 00 00 00 00 00 00 00 00 00 00 00 00   ................
0040  90 e6 b9 e0 64 a3 60 03 02 01 98 a3 e0 75 08 00   ....d.`......u..

No.     Time           Source                Destination           Protocol Length Info
1217444 2303.800654000 host                  16.0                  USB      80     URB_CONTROL out

Frame 1217444: 80 bytes on wire (640 bits), 80 bytes captured (640 bits) on interface 0
USB URB
    URB id: 0xffff8800ca6c5240
    URB type: URB_SUBMIT ('S')
    URB transfer type: URB_CONTROL (0x02)
    Endpoint: 0x00, Direction: OUT
        0... .... = Direction: OUT (0)
        .000 0000 = Endpoint value: 0
    Device: 16
    URB bus id: 3
    Device setup request: relevant (0)
    Data: present (0)
    URB sec: 1444452005
    URB usec: 524694
    URB status: Operation now in progress (-EINPROGRESS) (-115)
    URB length [bytes]: 16
    Data length [bytes]: 16
    [Response in: 1217445]
URB setup
    bmRequestType: 0x40
        0... .... = Direction: Host-to-device
        .10. .... = Type: Vendor (0x02)
        ...0 0000 = Recipient: Device (0x00)
    bRequest: 160
    wValue: 0x0090
    wIndex: 0
    wLength: 16
Leftover Capture Data: f509a3e0fee4ee420890e6bee0750a00

0000  40 52 6c ca 00 88 ff ff 53 02 00 10 03 00 00 00   @Rl.....S.......
0010  a5 96 18 56 00 00 00 00 96 01 08 00 8d ff ff ff   ...V............
0020  10 00 00 00 10 00 00 00 40 a0 90 00 00 00 10 00   ........@.......
0030  00 00 00 00 00 00 00 00 00 00 00 00 00 00 00 00   ................
0040  f5 09 a3 e0 fe e4 ee 42 08 90 e6 be e0 75 0a 00   .......B.....u..

No.     Time           Source                Destination           Protocol Length Info
1217446 2303.802935000 host                  16.0                  USB      80     URB_CONTROL out

Frame 1217446: 80 bytes on wire (640 bits), 80 bytes captured (640 bits) on interface 0
USB URB
    URB id: 0xffff8800ca6c5540
    URB type: URB_SUBMIT ('S')
    URB transfer type: URB_CONTROL (0x02)
    Endpoint: 0x00, Direction: OUT
        0... .... = Direction: OUT (0)
        .000 0000 = Endpoint value: 0
    Device: 16
    URB bus id: 3
    Device setup request: relevant (0)
    Data: present (0)
    URB sec: 1444452005
    URB usec: 526975
    URB status: Operation now in progress (-EINPROGRESS) (-115)
    URB length [bytes]: 16
    Data length [bytes]: 16
    [Response in: 1217447]
URB setup
    bmRequestType: 0x40
        0... .... = Direction: Host-to-device
        .10. .... = Type: Vendor (0x02)
        ...0 0000 = Recipient: Device (0x00)
    bRequest: 160
    wValue: 0x00a0
    wIndex: 0
    wLength: 16
Leftover Capture Data: f50ba3e0fee4ee420a90e6b8e0644070

0000  40 55 6c ca 00 88 ff ff 53 02 00 10 03 00 00 00   @Ul.....S.......
0010  a5 96 18 56 00 00 00 00 7f 0a 08 00 8d ff ff ff   ...V............
0020  10 00 00 00 10 00 00 00 40 a0 a0 00 00 00 10 00   ........@.......
0030  00 00 00 00 00 00 00 00 00 00 00 00 00 00 00 00   ................
0040  f5 0b a3 e0 fe e4 ee 42 0a 90 e6 b8 e0 64 40 70   .......B.....d@p

No.     Time           Source                Destination           Protocol Length Info
1217448 2303.805268000 host                  16.0                  USB      80     URB_CONTROL out

Frame 1217448: 80 bytes on wire (640 bits), 80 bytes captured (640 bits) on interface 0
USB URB
    URB id: 0xffff8800ca6c5780
    URB type: URB_SUBMIT ('S')
    URB transfer type: URB_CONTROL (0x02)
    Endpoint: 0x00, Direction: OUT
        0... .... = Direction: OUT (0)
        .000 0000 = Endpoint value: 0
    Device: 16
    URB bus id: 3
    Device setup request: relevant (0)
    Data: present (0)
    URB sec: 1444452005
    URB usec: 529308
    URB status: Operation now in progress (-EINPROGRESS) (-115)
    URB length [bytes]: 16
    Data length [bytes]: 16
    [Response in: 1217449]
URB setup
    bmRequestType: 0x40
        0... .... = Direction: Host-to-device
        .10. .... = Type: Vendor (0x02)
        ...0 0000 = Recipient: Device (0x00)
    bRequest: 160
    wValue: 0x00b0
    wIndex: 0
    wLength: 16
Leftover Capture Data: 66e50b450a70030201ade490e68af0a3

0000  80 57 6c ca 00 88 ff ff 53 02 00 10 03 00 00 00   .Wl.....S.......
0010  a5 96 18 56 00 00 00 00 9c 13 08 00 8d ff ff ff   ...V............
0020  10 00 00 00 10 00 00 00 40 a0 b0 00 00 00 10 00   ........@.......
0030  00 00 00 00 00 00 00 00 00 00 00 00 00 00 00 00   ................
0040  66 e5 0b 45 0a 70 03 02 01 ad e4 90 e6 8a f0 a3   f..E.p..........

No.     Time           Source                Destination           Protocol Length Info
1217450 2303.807586000 host                  16.0                  USB      80     URB_CONTROL out

Frame 1217450: 80 bytes on wire (640 bits), 80 bytes captured (640 bits) on interface 0
USB URB
    URB id: 0xffff8800ca6c5600
    URB type: URB_SUBMIT ('S')
    URB transfer type: URB_CONTROL (0x02)
    Endpoint: 0x00, Direction: OUT
        0... .... = Direction: OUT (0)
        .000 0000 = Endpoint value: 0
    Device: 16
    URB bus id: 3
    Device setup request: relevant (0)
    Data: present (0)
    URB sec: 1444452005
    URB usec: 531626
    URB status: Operation now in progress (-EINPROGRESS) (-115)
    URB length [bytes]: 16
    Data length [bytes]: 16
    [Response in: 1217453]
URB setup
    bmRequestType: 0x40
        0... .... = Direction: Host-to-device
        .10. .... = Type: Vendor (0x02)
        ...0 0000 = Recipient: Device (0x00)
    bRequest: 160
    wValue: 0x00c0
    wIndex: 0
    wLength: 16
Leftover Capture Data: f090e6a0e020e1f990e68be0750c00f5

0000  00 56 6c ca 00 88 ff ff 53 02 00 10 03 00 00 00   .Vl.....S.......
0010  a5 96 18 56 00 00 00 00 aa 1c 08 00 8d ff ff ff   ...V............
0020  10 00 00 00 10 00 00 00 40 a0 c0 00 00 00 10 00   ........@.......
0030  00 00 00 00 00 00 00 00 00 00 00 00 00 00 00 00   ................
0040  f0 90 e6 a0 e0 20 e1 f9 90 e6 8b e0 75 0c 00 f5   ..... ......u...

No.     Time           Source                Destination           Protocol Length Info
1217454 2303.809910000 host                  16.0                  USB      80     URB_CONTROL out

Frame 1217454: 80 bytes on wire (640 bits), 80 bytes captured (640 bits) on interface 0
USB URB
    URB id: 0xffff880736a56600
    URB type: URB_SUBMIT ('S')
    URB transfer type: URB_CONTROL (0x02)
    Endpoint: 0x00, Direction: OUT
        0... .... = Direction: OUT (0)
        .000 0000 = Endpoint value: 0
    Device: 16
    URB bus id: 3
    Device setup request: relevant (0)
    Data: present (0)
    URB sec: 1444452005
    URB usec: 533950
    URB status: Operation now in progress (-EINPROGRESS) (-115)
    URB length [bytes]: 16
    Data length [bytes]: 16
    [Response in: 1217455]
URB setup
    bmRequestType: 0x40
        0... .... = Direction: Host-to-device
        .10. .... = Type: Vendor (0x02)
        ...0 0000 = Recipient: Device (0x00)
    bRequest: 160
    wValue: 0x00d0
    wIndex: 0
    wLength: 16
Leftover Capture Data: 0de4fcfdc3ed950dec950c501f74402d

0000  00 66 a5 36 07 88 ff ff 53 02 00 10 03 00 00 00   .f.6....S.......
0010  a5 96 18 56 00 00 00 00 be 25 08 00 8d ff ff ff   ...V.....%......
0020  10 00 00 00 10 00 00 00 40 a0 d0 00 00 00 10 00   ........@.......
0030  00 00 00 00 00 00 00 00 00 00 00 00 00 00 00 00   ................
0040  0d e4 fc fd c3 ed 95 0d ec 95 0c 50 1f 74 40 2d   ...........P.t@-

No.     Time           Source                Destination           Protocol Length Info
1217456 2303.812180000 host                  16.0                  USB      80     URB_CONTROL out

Frame 1217456: 80 bytes on wire (640 bits), 80 bytes captured (640 bits) on interface 0
USB URB
    URB id: 0xffff88074b9b2d80
    URB type: URB_SUBMIT ('S')
    URB transfer type: URB_CONTROL (0x02)
    Endpoint: 0x00, Direction: OUT
        0... .... = Direction: OUT (0)
        .000 0000 = Endpoint value: 0
    Device: 16
    URB bus id: 3
    Device setup request: relevant (0)
    Data: present (0)
    URB sec: 1444452005
    URB usec: 536220
    URB status: Operation now in progress (-EINPROGRESS) (-115)
    URB length [bytes]: 16
    Data length [bytes]: 16
    [Response in: 1217457]
URB setup
    bmRequestType: 0x40
        0... .... = Direction: Host-to-device
        .10. .... = Type: Vendor (0x02)
        ...0 0000 = Recipient: Device (0x00)
    bRequest: 160
    wValue: 0x00e0
    wIndex: 0
    wLength: 16
Leftover Capture Data: f582e434e7f583e0ffe5092df582e508

0000  80 2d 9b 4b 07 88 ff ff 53 02 00 10 03 00 00 00   .-.K....S.......
0010  a5 96 18 56 00 00 00 00 9c 2e 08 00 8d ff ff ff   ...V............
0020  10 00 00 00 10 00 00 00 40 a0 e0 00 00 00 10 00   ........@.......
0030  00 00 00 00 00 00 00 00 00 00 00 00 00 00 00 00   ................
0040  f5 82 e4 34 e7 f5 83 e0 ff e5 09 2d f5 82 e5 08   ...4.......-....

No.     Time           Source                Destination           Protocol Length Info
1217458 2303.814435000 host                  16.0                  USB      80     URB_CONTROL out

Frame 1217458: 80 bytes on wire (640 bits), 80 bytes captured (640 bits) on interface 0
USB URB
    URB id: 0xffff88074b9b2e40
    URB type: URB_SUBMIT ('S')
    URB transfer type: URB_CONTROL (0x02)
    Endpoint: 0x00, Direction: OUT
        0... .... = Direction: OUT (0)
        .000 0000 = Endpoint value: 0
    Device: 16
    URB bus id: 3
    Device setup request: relevant (0)
    Data: present (0)
    URB sec: 1444452005
    URB usec: 538475
    URB status: Operation now in progress (-EINPROGRESS) (-115)
    URB length [bytes]: 16
    Data length [bytes]: 16
    [Response in: 1217459]
URB setup
    bmRequestType: 0x40
        0... .... = Direction: Host-to-device
        .10. .... = Type: Vendor (0x02)
        ...0 0000 = Recipient: Device (0x00)
    bRequest: 160
    wValue: 0x00f0
    wIndex: 0
    wLength: 16
Leftover Capture Data: 3cf583eff00dbd00010c80d8e50d2509

0000  40 2e 9b 4b 07 88 ff ff 53 02 00 10 03 00 00 00   @..K....S.......
0010  a5 96 18 56 00 00 00 00 6b 37 08 00 8d ff ff ff   ...V....k7......
0020  10 00 00 00 10 00 00 00 40 a0 f0 00 00 00 10 00   ........@.......
0030  00 00 00 00 00 00 00 00 00 00 00 00 00 00 00 00   ................
0040  3c f5 83 ef f0 0d bd 00 01 0c 80 d8 e5 0d 25 09   <.............%.

No.     Time           Source                Destination           Protocol Length Info
1217462 2303.816749000 host                  16.0                  USB      80     URB_CONTROL out

Frame 1217462: 80 bytes on wire (640 bits), 80 bytes captured (640 bits) on interface 0
USB URB
    URB id: 0xffff88074b9b2f00
    URB type: URB_SUBMIT ('S')
    URB transfer type: URB_CONTROL (0x02)
    Endpoint: 0x00, Direction: OUT
        0... .... = Direction: OUT (0)
        .000 0000 = Endpoint value: 0
    Device: 16
    URB bus id: 3
    Device setup request: relevant (0)
    Data: present (0)
    URB sec: 1444452005
    URB usec: 540789
    URB status: Operation now in progress (-EINPROGRESS) (-115)
    URB length [bytes]: 16
    Data length [bytes]: 16
    [Response in: 1217463]
URB setup
    bmRequestType: 0x40
        0... .... = Direction: Host-to-device
        .10. .... = Type: Vendor (0x02)
        ...0 0000 = Recipient: Device (0x00)
    bRequest: 160
    wValue: 0x0100
    wIndex: 0
    wLength: 16
Leftover Capture Data: f509e50c3508f508c3e50b950df50be5

0000  00 2f 9b 4b 07 88 ff ff 53 02 00 10 03 00 00 00   ./.K....S.......
0010  a5 96 18 56 00 00 00 00 75 40 08 00 8d ff ff ff   ...V....u@......
0020  10 00 00 00 10 00 00 00 40 a0 00 01 00 00 10 00   ........@.......
0030  00 00 00 00 00 00 00 00 00 00 00 00 00 00 00 00   ................
0040  f5 09 e5 0c 35 08 f5 08 c3 e5 0b 95 0d f5 0b e5   ....5...........

No.     Time           Source                Destination           Protocol Length Info
1217464 2303.819105000 host                  16.0                  USB      80     URB_CONTROL out

Frame 1217464: 80 bytes on wire (640 bits), 80 bytes captured (640 bits) on interface 0
USB URB
    URB id: 0xffff88074b9b26c0
    URB type: URB_SUBMIT ('S')
    URB transfer type: URB_CONTROL (0x02)
    Endpoint: 0x00, Direction: OUT
        0... .... = Direction: OUT (0)
        .000 0000 = Endpoint value: 0
    Device: 16
    URB bus id: 3
    Device setup request: relevant (0)
    Data: present (0)
    URB sec: 1444452005
    URB usec: 543145
    URB status: Operation now in progress (-EINPROGRESS) (-115)
    URB length [bytes]: 16
    Data length [bytes]: 16
    [Response in: 1217465]
URB setup
    bmRequestType: 0x40
        0... .... = Direction: Host-to-device
        .10. .... = Type: Vendor (0x02)
        ...0 0000 = Recipient: Device (0x00)
    bRequest: 160
    wValue: 0x0110
    wIndex: 0
    wLength: 16
Leftover Capture Data: 0a950cf50a809a90e6b8e064c0600302

0000  c0 26 9b 4b 07 88 ff ff 53 02 00 10 03 00 00 00   .&.K....S.......
0010  a5 96 18 56 00 00 00 00 a9 49 08 00 8d ff ff ff   ...V.....I......
0020  10 00 00 00 10 00 00 00 40 a0 10 01 00 00 10 00   ........@.......
0030  00 00 00 00 00 00 00 00 00 00 00 00 00 00 00 00   ................
0040  0a 95 0c f5 0a 80 9a 90 e6 b8 e0 64 c0 60 03 02   ...........d.`..

No.     Time           Source                Destination           Protocol Length Info
1217466 2303.821403000 host                  16.0                  USB      80     URB_CONTROL out

Frame 1217466: 80 bytes on wire (640 bits), 80 bytes captured (640 bits) on interface 0
USB URB
    URB id: 0xffff88074b9b2600
    URB type: URB_SUBMIT ('S')
    URB transfer type: URB_CONTROL (0x02)
    Endpoint: 0x00, Direction: OUT
        0... .... = Direction: OUT (0)
        .000 0000 = Endpoint value: 0
    Device: 16
    URB bus id: 3
    Device setup request: relevant (0)
    Data: present (0)
    URB sec: 1444452005
    URB usec: 545443
    URB status: Operation now in progress (-EINPROGRESS) (-115)
    URB length [bytes]: 16
    Data length [bytes]: 16
    [Response in: 1217467]
URB setup
    bmRequestType: 0x40
        0... .... = Direction: Host-to-device
        .10. .... = Type: Vendor (0x02)
        ...0 0000 = Recipient: Device (0x00)
    bRequest: 160
    wValue: 0x0120
    wIndex: 0
    wLength: 16
Leftover Capture Data: 01ade50b450a70030201adc3e50b9440

0000  00 26 9b 4b 07 88 ff ff 53 02 00 10 03 00 00 00   .&.K....S.......
0010  a5 96 18 56 00 00 00 00 a3 52 08 00 8d ff ff ff   ...V.....R......
0020  10 00 00 00 10 00 00 00 40 a0 20 01 00 00 10 00   ........@. .....
0030  00 00 00 00 00 00 00 00 00 00 00 00 00 00 00 00   ................
0040  01 ad e5 0b 45 0a 70 03 02 01 ad c3 e5 0b 94 40   ....E.p........@

No.     Time           Source                Destination           Protocol Length Info
1217470 2303.823710000 host                  16.0                  USB      80     URB_CONTROL out

Frame 1217470: 80 bytes on wire (640 bits), 80 bytes captured (640 bits) on interface 0
USB URB
    URB id: 0xffff88074b9b2540
    URB type: URB_SUBMIT ('S')
    URB transfer type: URB_CONTROL (0x02)
    Endpoint: 0x00, Direction: OUT
        0... .... = Direction: OUT (0)
        .000 0000 = Endpoint value: 0
    Device: 16
    URB bus id: 3
    Device setup request: relevant (0)
    Data: present (0)
    URB sec: 1444452005
    URB usec: 547750
    URB status: Operation now in progress (-EINPROGRESS) (-115)
    URB length [bytes]: 16
    Data length [bytes]: 16
    [Response in: 1217471]
URB setup
    bmRequestType: 0x40
        0... .... = Direction: Host-to-device
        .10. .... = Type: Vendor (0x02)
        ...0 0000 = Recipient: Device (0x00)
    bRequest: 160
    wValue: 0x0130
    wIndex: 0
    wLength: 16
Leftover Capture Data: e50a94005008850a0c850b0d8006750c

0000  40 25 9b 4b 07 88 ff ff 53 02 00 10 03 00 00 00   @%.K....S.......
0010  a5 96 18 56 00 00 00 00 a6 5b 08 00 8d ff ff ff   ...V.....[......
0020  10 00 00 00 10 00 00 00 40 a0 30 01 00 00 10 00   ........@.0.....
0030  00 00 00 00 00 00 00 00 00 00 00 00 00 00 00 00   ................
0040  e5 0a 94 00 50 08 85 0a 0c 85 0b 0d 80 06 75 0c   ....P.........u.

No.     Time           Source                Destination           Protocol Length Info
1217472 2303.826036000 host                  16.0                  USB      80     URB_CONTROL out

Frame 1217472: 80 bytes on wire (640 bits), 80 bytes captured (640 bits) on interface 0
USB URB
    URB id: 0xffff88074b9b2480
    URB type: URB_SUBMIT ('S')
    URB transfer type: URB_CONTROL (0x02)
    Endpoint: 0x00, Direction: OUT
        0... .... = Direction: OUT (0)
        .000 0000 = Endpoint value: 0
    Device: 16
    URB bus id: 3
    Device setup request: relevant (0)
    Data: present (0)
    URB sec: 1444452005
    URB usec: 550076
    URB status: Operation now in progress (-EINPROGRESS) (-115)
    URB length [bytes]: 16
    Data length [bytes]: 16
    [Response in: 1217473]
URB setup
    bmRequestType: 0x40
        0... .... = Direction: Host-to-device
        .10. .... = Type: Vendor (0x02)
        ...0 0000 = Recipient: Device (0x00)
    bRequest: 160
    wValue: 0x0140
    wIndex: 0
    wLength: 16
Leftover Capture Data: 00750d40e4fcfdc3ed950dec950c501f

0000  80 24 9b 4b 07 88 ff ff 53 02 00 10 03 00 00 00   .$.K....S.......
0010  a5 96 18 56 00 00 00 00 bc 64 08 00 8d ff ff ff   ...V.....d......
0020  10 00 00 00 10 00 00 00 40 a0 40 01 00 00 10 00   ........@.@.....
0030  00 00 00 00 00 00 00 00 00 00 00 00 00 00 00 00   ................
0040  00 75 0d 40 e4 fc fd c3 ed 95 0d ec 95 0c 50 1f   .u.@..........P.

No.     Time           Source                Destination           Protocol Length Info
1217474 2303.828363000 host                  16.0                  USB      80     URB_CONTROL out

Frame 1217474: 80 bytes on wire (640 bits), 80 bytes captured (640 bits) on interface 0
USB URB
    URB id: 0xffff88074b9b23c0
    URB type: URB_SUBMIT ('S')
    URB transfer type: URB_CONTROL (0x02)
    Endpoint: 0x00, Direction: OUT
        0... .... = Direction: OUT (0)
        .000 0000 = Endpoint value: 0
    Device: 16
    URB bus id: 3
    Device setup request: relevant (0)
    Data: present (0)
    URB sec: 1444452005
    URB usec: 552403
    URB status: Operation now in progress (-EINPROGRESS) (-115)
    URB length [bytes]: 16
    Data length [bytes]: 16
    [Response in: 1217475]
URB setup
    bmRequestType: 0x40
        0... .... = Direction: Host-to-device
        .10. .... = Type: Vendor (0x02)
        ...0 0000 = Recipient: Device (0x00)
    bRequest: 160
    wValue: 0x0150
    wIndex: 0
    wLength: 16
Leftover Capture Data: e5092df582e5083cf583e0ff74402df5

0000  c0 23 9b 4b 07 88 ff ff 53 02 00 10 03 00 00 00   .#.K....S.......
0010  a5 96 18 56 00 00 00 00 d3 6d 08 00 8d ff ff ff   ...V.....m......
0020  10 00 00 00 10 00 00 00 40 a0 50 01 00 00 10 00   ........@.P.....
0030  00 00 00 00 00 00 00 00 00 00 00 00 00 00 00 00   ................
0040  e5 09 2d f5 82 e5 08 3c f5 83 e0 ff 74 40 2d f5   ..-....<....t@-.

No.     Time           Source                Destination           Protocol Length Info
1217476 2303.830629000 host                  16.0                  USB      80     URB_CONTROL out

Frame 1217476: 80 bytes on wire (640 bits), 80 bytes captured (640 bits) on interface 0
USB URB
    URB id: 0xffff88074b9b2300
    URB type: URB_SUBMIT ('S')
    URB transfer type: URB_CONTROL (0x02)
    Endpoint: 0x00, Direction: OUT
        0... .... = Direction: OUT (0)
        .000 0000 = Endpoint value: 0
    Device: 16
    URB bus id: 3
    Device setup request: relevant (0)
    Data: present (0)
    URB sec: 1444452005
    URB usec: 554669
    URB status: Operation now in progress (-EINPROGRESS) (-115)
    URB length [bytes]: 16
    Data length [bytes]: 16
    [Response in: 1217477]
URB setup
    bmRequestType: 0x40
        0... .... = Direction: Host-to-device
        .10. .... = Type: Vendor (0x02)
        ...0 0000 = Recipient: Device (0x00)
    bRequest: 160
    wValue: 0x0160
    wIndex: 0
    wLength: 16
Leftover Capture Data: 82e434e7f583eff00dbd00010c80d8e4

0000  00 23 9b 4b 07 88 ff ff 53 02 00 10 03 00 00 00   .#.K....S.......
0010  a5 96 18 56 00 00 00 00 ad 76 08 00 8d ff ff ff   ...V.....v......
0020  10 00 00 00 10 00 00 00 40 a0 60 01 00 00 10 00   ........@.`.....
0030  00 00 00 00 00 00 00 00 00 00 00 00 00 00 00 00   ................
0040  82 e4 34 e7 f5 83 ef f0 0d bd 00 01 0c 80 d8 e4   ..4.............

No.     Time           Source                Destination           Protocol Length Info
1217480 2303.832849000 host                  16.0                  USB      80     URB_CONTROL out

Frame 1217480: 80 bytes on wire (640 bits), 80 bytes captured (640 bits) on interface 0
USB URB
    URB id: 0xffff88074b9b2240
    URB type: URB_SUBMIT ('S')
    URB transfer type: URB_CONTROL (0x02)
    Endpoint: 0x00, Direction: OUT
        0... .... = Direction: OUT (0)
        .000 0000 = Endpoint value: 0
    Device: 16
    URB bus id: 3
    Device setup request: relevant (0)
    Data: present (0)
    URB sec: 1444452005
    URB usec: 556889
    URB status: Operation now in progress (-EINPROGRESS) (-115)
    URB length [bytes]: 16
    Data length [bytes]: 16
    [Response in: 1217481]
URB setup
    bmRequestType: 0x40
        0... .... = Direction: Host-to-device
        .10. .... = Type: Vendor (0x02)
        ...0 0000 = Recipient: Device (0x00)
    bRequest: 160
    wValue: 0x0170
    wIndex: 0
    wLength: 16
Leftover Capture Data: 90e68af0a3e50df02509f509e50c3508

0000  40 22 9b 4b 07 88 ff ff 53 02 00 10 03 00 00 00   @".K....S.......
0010  a5 96 18 56 00 00 00 00 59 7f 08 00 8d ff ff ff   ...V....Y.......
0020  10 00 00 00 10 00 00 00 40 a0 70 01 00 00 10 00   ........@.p.....
0030  00 00 00 00 00 00 00 00 00 00 00 00 00 00 00 00   ................
0040  90 e6 8a f0 a3 e5 0d f0 25 09 f5 09 e5 0c 35 08   ........%.....5.

No.     Time           Source                Destination           Protocol Length Info
1217482 2303.835115000 host                  16.0                  USB      80     URB_CONTROL out

Frame 1217482: 80 bytes on wire (640 bits), 80 bytes captured (640 bits) on interface 0
USB URB
    URB id: 0xffff88074b9b2180
    URB type: URB_SUBMIT ('S')
    URB transfer type: URB_CONTROL (0x02)
    Endpoint: 0x00, Direction: OUT
        0... .... = Direction: OUT (0)
        .000 0000 = Endpoint value: 0
    Device: 16
    URB bus id: 3
    Device setup request: relevant (0)
    Data: present (0)
    URB sec: 1444452005
    URB usec: 559155
    URB status: Operation now in progress (-EINPROGRESS) (-115)
    URB length [bytes]: 16
    Data length [bytes]: 16
    [Response in: 1217483]
URB setup
    bmRequestType: 0x40
        0... .... = Direction: Host-to-device
        .10. .... = Type: Vendor (0x02)
        ...0 0000 = Recipient: Device (0x00)
    bRequest: 160
    wValue: 0x0180
    wIndex: 0
    wLength: 16
Leftover Capture Data: f508c3e50b950df50be50a950cf50a90

0000  80 21 9b 4b 07 88 ff ff 53 02 00 10 03 00 00 00   .!.K....S.......
0010  a5 96 18 56 00 00 00 00 33 88 08 00 8d ff ff ff   ...V....3.......
0020  10 00 00 00 10 00 00 00 40 a0 80 01 00 00 10 00   ........@.......
0030  00 00 00 00 00 00 00 00 00 00 00 00 00 00 00 00   ................
0040  f5 08 c3 e5 0b 95 0d f5 0b e5 0a 95 0c f5 0a 90   ................

No.     Time           Source                Destination           Protocol Length Info
1217484 2303.837363000 host                  16.0                  USB      80     URB_CONTROL out

Frame 1217484: 80 bytes on wire (640 bits), 80 bytes captured (640 bits) on interface 0
USB URB
    URB id: 0xffff88074b9b20c0
    URB type: URB_SUBMIT ('S')
    URB transfer type: URB_CONTROL (0x02)
    Endpoint: 0x00, Direction: OUT
        0... .... = Direction: OUT (0)
        .000 0000 = Endpoint value: 0
    Device: 16
    URB bus id: 3
    Device setup request: relevant (0)
    Data: present (0)
    URB sec: 1444452005
    URB usec: 561403
    URB status: Operation now in progress (-EINPROGRESS) (-115)
    URB length [bytes]: 16
    Data length [bytes]: 16
    [Response in: 1217485]
URB setup
    bmRequestType: 0x40
        0... .... = Direction: Host-to-device
        .10. .... = Type: Vendor (0x02)
        ...0 0000 = Recipient: Device (0x00)
    bRequest: 160
    wValue: 0x0190
    wIndex: 0
    wLength: 16
Leftover Capture Data: e6a0e030e18c80f790e6b9e0b4ac0e90

0000  c0 20 9b 4b 07 88 ff ff 53 02 00 10 03 00 00 00   . .K....S.......
0010  a5 96 18 56 00 00 00 00 fb 90 08 00 8d ff ff ff   ...V............
0020  10 00 00 00 10 00 00 00 40 a0 90 01 00 00 10 00   ........@.......
0030  00 00 00 00 00 00 00 00 00 00 00 00 00 00 00 00   ................
0040  e6 a0 e0 30 e1 8c 80 f7 90 e6 b9 e0 b4 ac 0e 90   ...0............

No.     Time           Source                Destination           Protocol Length Info
1217488 2303.839707000 host                  16.0                  USB      80     URB_CONTROL out

Frame 1217488: 80 bytes on wire (640 bits), 80 bytes captured (640 bits) on interface 0
USB URB
    URB id: 0xffff88074b9b2000
    URB type: URB_SUBMIT ('S')
    URB transfer type: URB_CONTROL (0x02)
    Endpoint: 0x00, Direction: OUT
        0... .... = Direction: OUT (0)
        .000 0000 = Endpoint value: 0
    Device: 16
    URB bus id: 3
    Device setup request: relevant (0)
    Data: present (0)
    URB sec: 1444452005
    URB usec: 563747
    URB status: Operation now in progress (-EINPROGRESS) (-115)
    URB length [bytes]: 16
    Data length [bytes]: 16
    [Response in: 1217489]
URB setup
    bmRequestType: 0x40
        0... .... = Direction: Host-to-device
        .10. .... = Type: Vendor (0x02)
        ...0 0000 = Recipient: Device (0x00)
    bRequest: 160
    wValue: 0x01a0
    wIndex: 0
    wLength: 16
Leftover Capture Data: e7407401f0e490e68af0a304f090e6a0

0000  00 20 9b 4b 07 88 ff ff 53 02 00 10 03 00 00 00   . .K....S.......
0010  a5 96 18 56 00 00 00 00 23 9a 08 00 8d ff ff ff   ...V....#.......
0020  10 00 00 00 10 00 00 00 40 a0 a0 01 00 00 10 00   ........@.......
0030  00 00 00 00 00 00 00 00 00 00 00 00 00 00 00 00   ................
0040  e7 40 74 01 f0 e4 90 e6 8a f0 a3 04 f0 90 e6 a0   .@t.............

No.     Time           Source                Destination           Protocol Length Info
1217504 2303.841934000 host                  16.0                  USB      68     URB_CONTROL out

Frame 1217504: 68 bytes on wire (544 bits), 68 bytes captured (544 bits) on interface 0
USB URB
    URB id: 0xffff88074b9b20c0
    URB type: URB_SUBMIT ('S')
    URB transfer type: URB_CONTROL (0x02)
    Endpoint: 0x00, Direction: OUT
        0... .... = Direction: OUT (0)
        .000 0000 = Endpoint value: 0
    Device: 16
    URB bus id: 3
    Device setup request: relevant (0)
    Data: present (0)
    URB sec: 1444452005
    URB usec: 565974
    URB status: Operation now in progress (-EINPROGRESS) (-115)
    URB length [bytes]: 4
    Data length [bytes]: 4
    [Response in: 1217505]
URB setup
    bmRequestType: 0x40
        0... .... = Direction: Host-to-device
        .10. .... = Type: Vendor (0x02)
        ...0 0000 = Recipient: Device (0x00)
    bRequest: 160
    wValue: 0x01b0
    wIndex: 0
    wLength: 4
Leftover Capture Data: e04480f0

0000  c0 20 9b 4b 07 88 ff ff 53 02 00 10 03 00 00 00   . .K....S.......
0010  a5 96 18 56 00 00 00 00 d6 a2 08 00 8d ff ff ff   ...V............
0020  04 00 00 00 04 00 00 00 40 a0 b0 01 00 00 04 00   ........@.......
0030  00 00 00 00 00 00 00 00 00 00 00 00 00 00 00 00   ................
0040  e0 44 80 f0                                       .D..

No.     Time           Source                Destination           Protocol Length Info
1217506 2303.844209000 host                  16.0                  USB      65     URB_CONTROL out

Frame 1217506: 65 bytes on wire (520 bits), 65 bytes captured (520 bits) on interface 0
USB URB
    URB id: 0xffff88074b9b2000
    URB type: URB_SUBMIT ('S')
    URB transfer type: URB_CONTROL (0x02)
    Endpoint: 0x00, Direction: OUT
        0... .... = Direction: OUT (0)
        .000 0000 = Endpoint value: 0
    Device: 16
    URB bus id: 3
    Device setup request: relevant (0)
    Data: present (0)
    URB sec: 1444452005
    URB usec: 568249
    URB status: Operation now in progress (-EINPROGRESS) (-115)
    URB length [bytes]: 1
    Data length [bytes]: 1
    [Response in: 1217507]
URB setup
    bmRequestType: 0x40
        0... .... = Direction: Host-to-device
        .10. .... = Type: Vendor (0x02)
        ...0 0000 = Recipient: Device (0x00)
    bRequest: 160
    wValue: 0x01b4
    wIndex: 0
    wLength: 1
Leftover Capture Data: 22

0000  00 20 9b 4b 07 88 ff ff 53 02 00 10 03 00 00 00   . .K....S.......
0010  a5 96 18 56 00 00 00 00 b9 ab 08 00 8d ff ff ff   ...V............
0020  01 00 00 00 01 00 00 00 40 a0 b4 01 00 00 01 00   ........@.......
0030  00 00 00 00 00 00 00 00 00 00 00 00 00 00 00 00   ................
0040  22                                                "

No.     Time           Source                Destination           Protocol Length Info
1217508 2303.846465000 host                  16.0                  USB      80     URB_CONTROL out

Frame 1217508: 80 bytes on wire (640 bits), 80 bytes captured (640 bits) on interface 0
USB URB
    URB id: 0xffff88074b9b2180
    URB type: URB_SUBMIT ('S')
    URB transfer type: URB_CONTROL (0x02)
    Endpoint: 0x00, Direction: OUT
        0... .... = Direction: OUT (0)
        .000 0000 = Endpoint value: 0
    Device: 16
    URB bus id: 3
    Device setup request: relevant (0)
    Data: present (0)
    URB sec: 1444452005
    URB usec: 570505
    URB status: Operation now in progress (-EINPROGRESS) (-115)
    URB length [bytes]: 16
    Data length [bytes]: 16
    [Response in: 1217509]
URB setup
    bmRequestType: 0x40
        0... .... = Direction: Host-to-device
        .10. .... = Type: Vendor (0x02)
        ...0 0000 = Recipient: Device (0x00)
    bRequest: 160
    wValue: 0x02de
    wIndex: 0
    wLength: 16
Leftover Capture Data: c2011203689200907f95e044c0f0d2e8

0000  80 21 9b 4b 07 88 ff ff 53 02 00 10 03 00 00 00   .!.K....S.......
0010  a5 96 18 56 00 00 00 00 89 b4 08 00 8d ff ff ff   ...V............
0020  10 00 00 00 10 00 00 00 40 a0 de 02 00 00 10 00   ........@.......
0030  00 00 00 00 00 00 00 00 00 00 00 00 00 00 00 00   ................
0040  c2 01 12 03 68 92 00 90 7f 95 e0 44 c0 f0 d2 e8   ....h......D....

No.     Time           Source                Destination           Protocol Length Info
1217512 2303.848729000 host                  16.0                  USB      80     URB_CONTROL out

Frame 1217512: 80 bytes on wire (640 bits), 80 bytes captured (640 bits) on interface 0
USB URB
    URB id: 0xffff88074b9b2240
    URB type: URB_SUBMIT ('S')
    URB transfer type: URB_CONTROL (0x02)
    Endpoint: 0x00, Direction: OUT
        0... .... = Direction: OUT (0)
        .000 0000 = Endpoint value: 0
    Device: 16
    URB bus id: 3
    Device setup request: relevant (0)
    Data: present (0)
    URB sec: 1444452005
    URB usec: 572769
    URB status: Operation now in progress (-EINPROGRESS) (-115)
    URB length [bytes]: 16
    Data length [bytes]: 16
    [Response in: 1217513]
URB setup
    bmRequestType: 0x40
        0... .... = Direction: Host-to-device
        .10. .... = Type: Vendor (0x02)
        ...0 0000 = Recipient: Device (0x00)
    bRequest: 160
    wValue: 0x02ee
    wIndex: 0
    wLength: 16
Leftover Capture Data: 30000890e65d74fff08006907fab74ff

0000  40 22 9b 4b 07 88 ff ff 53 02 00 10 03 00 00 00   @".K....S.......
0010  a5 96 18 56 00 00 00 00 61 bd 08 00 8d ff ff ff   ...V....a.......
0020  10 00 00 00 10 00 00 00 40 a0 ee 02 00 00 10 00   ........@.......
0030  00 00 00 00 00 00 00 00 00 00 00 00 00 00 00 00   ................
0040  30 00 08 90 e6 5d 74 ff f0 80 06 90 7f ab 74 ff   0....]t.......t.

No.     Time           Source                Destination           Protocol Length Info
1217514 2303.850976000 host                  16.0                  USB      80     URB_CONTROL out

Frame 1217514: 80 bytes on wire (640 bits), 80 bytes captured (640 bits) on interface 0
USB URB
    URB id: 0xffff88074b9b2300
    URB type: URB_SUBMIT ('S')
    URB transfer type: URB_CONTROL (0x02)
    Endpoint: 0x00, Direction: OUT
        0... .... = Direction: OUT (0)
        .000 0000 = Endpoint value: 0
    Device: 16
    URB bus id: 3
    Device setup request: relevant (0)
    Data: present (0)
    URB sec: 1444452005
    URB usec: 575016
    URB status: Operation now in progress (-EINPROGRESS) (-115)
    URB length [bytes]: 16
    Data length [bytes]: 16
    [Response in: 1217515]
URB setup
    bmRequestType: 0x40
        0... .... = Direction: Host-to-device
        .10. .... = Type: Vendor (0x02)
        ...0 0000 = Recipient: Device (0x00)
    bRequest: 160
    wValue: 0x02fe
    wIndex: 0
    wLength: 16
Leftover Capture Data: f030000890e6687408f08007907fafe0

0000  00 23 9b 4b 07 88 ff ff 53 02 00 10 03 00 00 00   .#.K....S.......
0010  a5 96 18 56 00 00 00 00 28 c6 08 00 8d ff ff ff   ...V....(.......
0020  10 00 00 00 10 00 00 00 40 a0 fe 02 00 00 10 00   ........@.......
0030  00 00 00 00 00 00 00 00 00 00 00 00 00 00 00 00   ................
0040  f0 30 00 08 90 e6 68 74 08 f0 80 07 90 7f af e0   .0....ht........

No.     Time           Source                Destination           Protocol Length Info
1217516 2303.853223000 host                  16.0                  USB      80     URB_CONTROL out

Frame 1217516: 80 bytes on wire (640 bits), 80 bytes captured (640 bits) on interface 0
USB URB
    URB id: 0xffff88074b9b23c0
    URB type: URB_SUBMIT ('S')
    URB transfer type: URB_CONTROL (0x02)
    Endpoint: 0x00, Direction: OUT
        0... .... = Direction: OUT (0)
        .000 0000 = Endpoint value: 0
    Device: 16
    URB bus id: 3
    Device setup request: relevant (0)
    Data: present (0)
    URB sec: 1444452005
    URB usec: 577263
    URB status: Operation now in progress (-EINPROGRESS) (-115)
    URB length [bytes]: 16
    Data length [bytes]: 16
    [Response in: 1217517]
URB setup
    bmRequestType: 0x40
        0... .... = Direction: Host-to-device
        .10. .... = Type: Vendor (0x02)
        ...0 0000 = Recipient: Device (0x00)
    bRequest: 160
    wValue: 0x030e
    wIndex: 0
    wLength: 16
Leftover Capture Data: 4401f030000890e65c7401f08006907f

0000  c0 23 9b 4b 07 88 ff ff 53 02 00 10 03 00 00 00   .#.K....S.......
0010  a5 96 18 56 00 00 00 00 ef ce 08 00 8d ff ff ff   ...V............
0020  10 00 00 00 10 00 00 00 40 a0 0e 03 00 00 10 00   ........@.......
0030  00 00 00 00 00 00 00 00 00 00 00 00 00 00 00 00   ................
0040  44 01 f0 30 00 08 90 e6 5c 74 01 f0 80 06 90 7f   D..0....\t......

No.     Time           Source                Destination           Protocol Length Info
1217518 2303.855529000 host                  16.0                  USB      80     URB_CONTROL out

Frame 1217518: 80 bytes on wire (640 bits), 80 bytes captured (640 bits) on interface 0
USB URB
    URB id: 0xffff88074b9b2480
    URB type: URB_SUBMIT ('S')
    URB transfer type: URB_CONTROL (0x02)
    Endpoint: 0x00, Direction: OUT
        0... .... = Direction: OUT (0)
        .000 0000 = Endpoint value: 0
    Device: 16
    URB bus id: 3
    Device setup request: relevant (0)
    Data: present (0)
    URB sec: 1444452005
    URB usec: 579569
    URB status: Operation now in progress (-EINPROGRESS) (-115)
    URB length [bytes]: 16
    Data length [bytes]: 16
    [Response in: 1217519]
URB setup
    bmRequestType: 0x40
        0... .... = Direction: Host-to-device
        .10. .... = Type: Vendor (0x02)
        ...0 0000 = Recipient: Device (0x00)
    bRequest: 160
    wValue: 0x031e
    wIndex: 0
    wLength: 16
Leftover Capture Data: ae7401f0d2af3001fd30000512008080

0000  80 24 9b 4b 07 88 ff ff 53 02 00 10 03 00 00 00   .$.K....S.......
0010  a5 96 18 56 00 00 00 00 f1 d7 08 00 8d ff ff ff   ...V............
0020  10 00 00 00 10 00 00 00 40 a0 1e 03 00 00 10 00   ........@.......
0030  00 00 00 00 00 00 00 00 00 00 00 00 00 00 00 00   ................
0040  ae 74 01 f0 d2 af 30 01 fd 30 00 05 12 00 80 80   .t....0..0......

No.     Time           Source                Destination           Protocol Length Info
1217522 2303.857839000 host                  16.0                  USB      72     URB_CONTROL out

Frame 1217522: 72 bytes on wire (576 bits), 72 bytes captured (576 bits) on interface 0
USB URB
    URB id: 0xffff88074b9b2540
    URB type: URB_SUBMIT ('S')
    URB transfer type: URB_CONTROL (0x02)
    Endpoint: 0x00, Direction: OUT
        0... .... = Direction: OUT (0)
        .000 0000 = Endpoint value: 0
    Device: 16
    URB bus id: 3
    Device setup request: relevant (0)
    Data: present (0)
    URB sec: 1444452005
    URB usec: 581879
    URB status: Operation now in progress (-EINPROGRESS) (-115)
    URB length [bytes]: 8
    Data length [bytes]: 8
    [Response in: 1217523]
URB setup
    bmRequestType: 0x40
        0... .... = Direction: Host-to-device
        .10. .... = Type: Vendor (0x02)
        ...0 0000 = Recipient: Device (0x00)
    bRequest: 160
    wValue: 0x032e
    wIndex: 0
    wLength: 8
Leftover Capture Data: 031201b5c20180ee

0000  40 25 9b 4b 07 88 ff ff 53 02 00 10 03 00 00 00   @%.K....S.......
0010  a5 96 18 56 00 00 00 00 f7 e0 08 00 8d ff ff ff   ...V............
0020  08 00 00 00 08 00 00 00 40 a0 2e 03 00 00 08 00   ........@.......
0030  00 00 00 00 00 00 00 00 00 00 00 00 00 00 00 00   ................
0040  03 12 01 b5 c2 01 80 ee                           ........

No.     Time           Source                Destination           Protocol Length Info
1217524 2303.860066000 host                  16.0                  USB      67     URB_CONTROL out

Frame 1217524: 67 bytes on wire (536 bits), 67 bytes captured (536 bits) on interface 0
USB URB
    URB id: 0xffff88074b9b2600
    URB type: URB_SUBMIT ('S')
    URB transfer type: URB_CONTROL (0x02)
    Endpoint: 0x00, Direction: OUT
        0... .... = Direction: OUT (0)
        .000 0000 = Endpoint value: 0
    Device: 16
    URB bus id: 3
    Device setup request: relevant (0)
    Data: present (0)
    URB sec: 1444452005
    URB usec: 584106
    URB status: Operation now in progress (-EINPROGRESS) (-115)
    URB length [bytes]: 3
    Data length [bytes]: 3
    [Response in: 1217525]
URB setup
    bmRequestType: 0x40
        0... .... = Direction: Host-to-device
        .10. .... = Type: Vendor (0x02)
        ...0 0000 = Recipient: Device (0x00)
    bRequest: 160
    wValue: 0x0003
    wIndex: 0
    wLength: 3
Leftover Capture Data: 020336

0000  00 26 9b 4b 07 88 ff ff 53 02 00 10 03 00 00 00   .&.K....S.......
0010  a5 96 18 56 00 00 00 00 aa e9 08 00 8d ff ff ff   ...V............
0020  03 00 00 00 03 00 00 00 40 a0 03 00 00 00 03 00   ........@.......
0030  00 00 00 00 00 00 00 00 00 00 00 00 00 00 00 00   ................
0040  02 03 36                                          ..6

No.     Time           Source                Destination           Protocol Length Info
1217526 2303.862428000 host                  16.0                  USB      80     URB_CONTROL out

Frame 1217526: 80 bytes on wire (640 bits), 80 bytes captured (640 bits) on interface 0
USB URB
    URB id: 0xffff88074b9b26c0
    URB type: URB_SUBMIT ('S')
    URB transfer type: URB_CONTROL (0x02)
    Endpoint: 0x00, Direction: OUT
        0... .... = Direction: OUT (0)
        .000 0000 = Endpoint value: 0
    Device: 16
    URB bus id: 3
    Device setup request: relevant (0)
    Data: present (0)
    URB sec: 1444452005
    URB usec: 586468
    URB status: Operation now in progress (-EINPROGRESS) (-115)
    URB length [bytes]: 16
    Data length [bytes]: 16
    [Response in: 1217527]
URB setup
    bmRequestType: 0x40
        0... .... = Direction: Host-to-device
        .10. .... = Type: Vendor (0x02)
        ...0 0000 = Recipient: Device (0x00)
    bRequest: 160
    wValue: 0x0336
    wIndex: 0
    wLength: 16
Leftover Capture Data: c0e0c083c082c085c084c086758600d2

0000  c0 26 9b 4b 07 88 ff ff 53 02 00 10 03 00 00 00   .&.K....S.......
0010  a5 96 18 56 00 00 00 00 e4 f2 08 00 8d ff ff ff   ...V............
0020  10 00 00 00 10 00 00 00 40 a0 36 03 00 00 10 00   ........@.6.....
0030  00 00 00 00 00 00 00 00 00 00 00 00 00 00 00 00   ................
0040  c0 e0 c0 83 c0 82 c0 85 c0 84 c0 86 75 86 00 d2   ............u...

No.     Time           Source                Destination           Protocol Length Info
1217528 2303.864811000 host                  16.0                  USB      80     URB_CONTROL out

Frame 1217528: 80 bytes on wire (640 bits), 80 bytes captured (640 bits) on interface 0
USB URB
    URB id: 0xffff88074b9b2f00
    URB type: URB_SUBMIT ('S')
    URB transfer type: URB_CONTROL (0x02)
    Endpoint: 0x00, Direction: OUT
        0... .... = Direction: OUT (0)
        .000 0000 = Endpoint value: 0
    Device: 16
    URB bus id: 3
    Device setup request: relevant (0)
    Data: present (0)
    URB sec: 1444452005
    URB usec: 588851
    URB status: Operation now in progress (-EINPROGRESS) (-115)
    URB length [bytes]: 16
    Data length [bytes]: 16
    [Response in: 1217529]
URB setup
    bmRequestType: 0x40
        0... .... = Direction: Host-to-device
        .10. .... = Type: Vendor (0x02)
        ...0 0000 = Recipient: Device (0x00)
    bRequest: 160
    wValue: 0x0346
    wIndex: 0
    wLength: 16
Leftover Capture Data: 015391ef30000890e65d7401f0800690

0000  00 2f 9b 4b 07 88 ff ff 53 02 00 10 03 00 00 00   ./.K....S.......
0010  a5 96 18 56 00 00 00 00 33 fc 08 00 8d ff ff ff   ...V....3.......
0020  10 00 00 00 10 00 00 00 40 a0 46 03 00 00 10 00   ........@.F.....
0030  00 00 00 00 00 00 00 00 00 00 00 00 00 00 00 00   ................
0040  01 53 91 ef 30 00 08 90 e6 5d 74 01 f0 80 06 90   .S..0....]t.....

No.     Time           Source                Destination           Protocol Length Info
1217530 2303.867208000 host                  16.0                  USB      80     URB_CONTROL out

Frame 1217530: 80 bytes on wire (640 bits), 80 bytes captured (640 bits) on interface 0
USB URB
    URB id: 0xffff88074b9b2e40
    URB type: URB_SUBMIT ('S')
    URB transfer type: URB_CONTROL (0x02)
    Endpoint: 0x00, Direction: OUT
        0... .... = Direction: OUT (0)
        .000 0000 = Endpoint value: 0
    Device: 16
    URB bus id: 3
    Device setup request: relevant (0)
    Data: present (0)
    URB sec: 1444452005
    URB usec: 591248
    URB status: Operation now in progress (-EINPROGRESS) (-115)
    URB length [bytes]: 16
    Data length [bytes]: 16
    [Response in: 1217531]
URB setup
    bmRequestType: 0x40
        0... .... = Direction: Host-to-device
        .10. .... = Type: Vendor (0x02)
        ...0 0000 = Recipient: Device (0x00)
    bRequest: 160
    wValue: 0x0356
    wIndex: 0
    wLength: 16
Leftover Capture Data: 7fab7401f0d086d084d085d082d083d0

0000  40 2e 9b 4b 07 88 ff ff 53 02 00 10 03 00 00 00   @..K....S.......
0010  a5 96 18 56 00 00 00 00 90 05 09 00 8d ff ff ff   ...V............
0020  10 00 00 00 10 00 00 00 40 a0 56 03 00 00 10 00   ........@.V.....
0030  00 00 00 00 00 00 00 00 00 00 00 00 00 00 00 00   ................
0040  7f ab 74 01 f0 d0 86 d0 84 d0 85 d0 82 d0 83 d0   ..t.............

No.     Time           Source                Destination           Protocol Length Info
1217532 2303.869633000 host                  16.0                  USB      66     URB_CONTROL out

Frame 1217532: 66 bytes on wire (528 bits), 66 bytes captured (528 bits) on interface 0
USB URB
    URB id: 0xffff88074b9b2d80
    URB type: URB_SUBMIT ('S')
    URB transfer type: URB_CONTROL (0x02)
    Endpoint: 0x00, Direction: OUT
        0... .... = Direction: OUT (0)
        .000 0000 = Endpoint value: 0
    Device: 16
    URB bus id: 3
    Device setup request: relevant (0)
    Data: present (0)
    URB sec: 1444452005
    URB usec: 593673
    URB status: Operation now in progress (-EINPROGRESS) (-115)
    URB length [bytes]: 2
    Data length [bytes]: 2
    [Response in: 1217533]
URB setup
    bmRequestType: 0x40
        0... .... = Direction: Host-to-device
        .10. .... = Type: Vendor (0x02)
        ...0 0000 = Recipient: Device (0x00)
    bRequest: 160
    wValue: 0x0366
    wIndex: 0
    wLength: 2
Leftover Capture Data: e032

0000  80 2d 9b 4b 07 88 ff ff 53 02 00 10 03 00 00 00   .-.K....S.......
0010  a5 96 18 56 00 00 00 00 09 0f 09 00 8d ff ff ff   ...V............
0020  02 00 00 00 02 00 00 00 40 a0 66 03 00 00 02 00   ........@.f.....
0030  00 00 00 00 00 00 00 00 00 00 00 00 00 00 00 00   ................
0040  e0 32                                             .2

No.     Time           Source                Destination           Protocol Length Info
1217536 2303.872042000 host                  16.0                  USB      67     URB_CONTROL out

Frame 1217536: 67 bytes on wire (536 bits), 67 bytes captured (536 bits) on interface 0
USB URB
    URB id: 0xffff88074b9b29c0
    URB type: URB_SUBMIT ('S')
    URB transfer type: URB_CONTROL (0x02)
    Endpoint: 0x00, Direction: OUT
        0... .... = Direction: OUT (0)
        .000 0000 = Endpoint value: 0
    Device: 16
    URB bus id: 3
    Device setup request: relevant (0)
    Data: present (0)
    URB sec: 1444452005
    URB usec: 596082
    URB status: Operation now in progress (-EINPROGRESS) (-115)
    URB length [bytes]: 3
    Data length [bytes]: 3
    [Response in: 1217537]
URB setup
    bmRequestType: 0x40
        0... .... = Direction: Host-to-device
        .10. .... = Type: Vendor (0x02)
        ...0 0000 = Recipient: Device (0x00)
    bRequest: 160
    wValue: 0x0043
    wIndex: 0
    wLength: 3
Leftover Capture Data: 020400

0000  c0 29 9b 4b 07 88 ff ff 53 02 00 10 03 00 00 00   .).K....S.......
0010  a5 96 18 56 00 00 00 00 72 18 09 00 8d ff ff ff   ...V....r.......
0020  03 00 00 00 03 00 00 00 40 a0 43 00 00 00 03 00   ........@.C.....
0030  00 00 00 00 00 00 00 00 00 00 00 00 00 00 00 00   ................
0040  02 04 00                                          ...

No.     Time           Source                Destination           Protocol Length Info
1217538 2303.874440000 host                  16.0                  USB      68     URB_CONTROL out

Frame 1217538: 68 bytes on wire (544 bits), 68 bytes captured (544 bits) on interface 0
USB URB
    URB id: 0xffff88074b9b2900
    URB type: URB_SUBMIT ('S')
    URB transfer type: URB_CONTROL (0x02)
    Endpoint: 0x00, Direction: OUT
        0... .... = Direction: OUT (0)
        .000 0000 = Endpoint value: 0
    Device: 16
    URB bus id: 3
    Device setup request: relevant (0)
    Data: present (0)
    URB sec: 1444452005
    URB usec: 598480
    URB status: Operation now in progress (-EINPROGRESS) (-115)
    URB length [bytes]: 4
    Data length [bytes]: 4
    [Response in: 1217539]
URB setup
    bmRequestType: 0x40
        0... .... = Direction: Host-to-device
        .10. .... = Type: Vendor (0x02)
        ...0 0000 = Recipient: Device (0x00)
    bRequest: 160
    wValue: 0x0400
    wIndex: 0
    wLength: 4
Leftover Capture Data: 02033600

0000  00 29 9b 4b 07 88 ff ff 53 02 00 10 03 00 00 00   .).K....S.......
0010  a5 96 18 56 00 00 00 00 d0 21 09 00 8d ff ff ff   ...V.....!......
0020  04 00 00 00 04 00 00 00 40 a0 00 04 00 00 04 00   ........@.......
0030  00 00 00 00 00 00 00 00 00 00 00 00 00 00 00 00   ................
0040  02 03 36 00                                       ..6.

No.     Time           Source                Destination           Protocol Length Info
1217540 2303.876824000 host                  16.0                  USB      67     URB_CONTROL out

Frame 1217540: 67 bytes on wire (536 bits), 67 bytes captured (536 bits) on interface 0
USB URB
    URB id: 0xffff88074b9b2840
    URB type: URB_SUBMIT ('S')
    URB transfer type: URB_CONTROL (0x02)
    Endpoint: 0x00, Direction: OUT
        0... .... = Direction: OUT (0)
        .000 0000 = Endpoint value: 0
    Device: 16
    URB bus id: 3
    Device setup request: relevant (0)
    Data: present (0)
    URB sec: 1444452005
    URB usec: 600864
    URB status: Operation now in progress (-EINPROGRESS) (-115)
    URB length [bytes]: 3
    Data length [bytes]: 3
    [Response in: 1217541]
URB setup
    bmRequestType: 0x40
        0... .... = Direction: Host-to-device
        .10. .... = Type: Vendor (0x02)
        ...0 0000 = Recipient: Device (0x00)
    bRequest: 160
    wValue: 0x0000
    wIndex: 0
    wLength: 3
Leftover Capture Data: 02037f

0000  40 28 9b 4b 07 88 ff ff 53 02 00 10 03 00 00 00   @(.K....S.......
0010  a5 96 18 56 00 00 00 00 20 2b 09 00 8d ff ff ff   ...V.... +......
0020  03 00 00 00 03 00 00 00 40 a0 00 00 00 00 03 00   ........@.......
0030  00 00 00 00 00 00 00 00 00 00 00 00 00 00 00 00   ................
0040  02 03 7f                                          ...

No.     Time           Source                Destination           Protocol Length Info
1217548 2303.879188000 host                  16.0                  USB      76     URB_CONTROL out

Frame 1217548: 76 bytes on wire (608 bits), 76 bytes captured (608 bits) on interface 0
USB URB
    URB id: 0xffff8800ca6c5b40
    URB type: URB_SUBMIT ('S')
    URB transfer type: URB_CONTROL (0x02)
    Endpoint: 0x00, Direction: OUT
        0... .... = Direction: OUT (0)
        .000 0000 = Endpoint value: 0
    Device: 16
    URB bus id: 3
    Device setup request: relevant (0)
    Data: present (0)
    URB sec: 1444452005
    URB usec: 603228
    URB status: Operation now in progress (-EINPROGRESS) (-115)
    URB length [bytes]: 12
    Data length [bytes]: 12
    [Response in: 1217549]
URB setup
    bmRequestType: 0x40
        0... .... = Direction: Host-to-device
        .10. .... = Type: Vendor (0x02)
        ...0 0000 = Recipient: Device (0x00)
    bRequest: 160
    wValue: 0x037f
    wIndex: 0
    wLength: 12
Leftover Capture Data: 787fe4f6d8fd7581200202de

0000  40 5b 6c ca 00 88 ff ff 53 02 00 10 03 00 00 00   @[l.....S.......
0010  a5 96 18 56 00 00 00 00 5c 34 09 00 8d ff ff ff   ...V....\4......
0020  0c 00 00 00 0c 00 00 00 40 a0 7f 03 00 00 0c 00   ........@.......
0030  00 00 00 00 00 00 00 00 00 00 00 00 00 00 00 00   ................
0040  78 7f e4 f6 d8 fd 75 81 20 02 02 de               x.....u. ...

No.     Time           Source                Destination           Protocol Length Info
1217552 2303.881504000 host                  16.0                  USB      65     URB_CONTROL out

Frame 1217552: 65 bytes on wire (520 bits), 65 bytes captured (520 bits) on interface 0
USB URB
    URB id: 0xffff8800ca6c5cc0
    URB type: URB_SUBMIT ('S')
    URB transfer type: URB_CONTROL (0x02)
    Endpoint: 0x00, Direction: OUT
        0... .... = Direction: OUT (0)
        .000 0000 = Endpoint value: 0
    Device: 16
    URB bus id: 3
    Device setup request: relevant (0)
    Data: present (0)
    URB sec: 1444452005
    URB usec: 605544
    URB status: Operation now in progress (-EINPROGRESS) (-115)
    URB length [bytes]: 1
    Data length [bytes]: 1
    [Response in: 1217553]
URB setup
    bmRequestType: 0x40
        0... .... = Direction: Host-to-device
        .10. .... = Type: Vendor (0x02)
        ...0 0000 = Recipient: Device (0x00)
    bRequest: 160
    wValue: 0x7f92
    wIndex: 0
    wLength: 1
Leftover Capture Data: 00

0000  c0 5c 6c ca 00 88 ff ff 53 02 00 10 03 00 00 00   .\l.....S.......
0010  a5 96 18 56 00 00 00 00 68 3d 09 00 8d ff ff ff   ...V....h=......
0020  01 00 00 00 01 00 00 00 40 a0 92 7f 00 00 01 00   ........@.......
0030  00 00 00 00 00 00 00 00 00 00 00 00 00 00 00 00   ................
0040  00                                                .

No.     Time           Source                Destination           Protocol Length Info
1217554 2303.883820000 host                  16.0                  USB      65     URB_CONTROL out

Frame 1217554: 65 bytes on wire (520 bits), 65 bytes captured (520 bits) on interface 0
USB URB
    URB id: 0xffff8800ca6c5900
    URB type: URB_SUBMIT ('S')
    URB transfer type: URB_CONTROL (0x02)
    Endpoint: 0x00, Direction: OUT
        0... .... = Direction: OUT (0)
        .000 0000 = Endpoint value: 0
    Device: 16
    URB bus id: 3
    Device setup request: relevant (0)
    Data: present (0)
    URB sec: 1444452005
    URB usec: 607860
    URB status: Operation now in progress (-EINPROGRESS) (-115)
    URB length [bytes]: 1
    Data length [bytes]: 1
    [Response in: 1217555]
URB setup
    bmRequestType: 0x40
        0... .... = Direction: Host-to-device
        .10. .... = Type: Vendor (0x02)
        ...0 0000 = Recipient: Device (0x00)
    bRequest: 160
    wValue: 0xe600
    wIndex: 0
    wLength: 1
Leftover Capture Data: 00

0000  00 59 6c ca 00 88 ff ff 53 02 00 10 03 00 00 00   .Yl.....S.......
0010  a5 96 18 56 00 00 00 00 74 46 09 00 8d ff ff ff   ...V....tF......
0020  01 00 00 00 01 00 00 00 40 a0 00 e6 00 00 01 00   ........@.......
0030  00 00 00 00 00 00 00 00 00 00 00 00 00 00 00 00   ................
0040  00                                                .

No.     Time           Source                Destination           Protocol Length Info
1217556 2303.886178000 host                  16.0                  USB      65     URB_CONTROL out

Frame 1217556: 65 bytes on wire (520 bits), 65 bytes captured (520 bits) on interface 0
USB URB
    URB id: 0xffff8800ca6c5900
    URB type: URB_SUBMIT ('S')
    URB transfer type: URB_CONTROL (0x02)
    Endpoint: 0x00, Direction: OUT
        0... .... = Direction: OUT (0)
        .000 0000 = Endpoint value: 0
    Device: 16
    URB bus id: 3
    Device setup request: relevant (0)
    Data: present (0)
    URB sec: 1444452005
    URB usec: 610218
    URB status: Operation now in progress (-EINPROGRESS) (-115)
    URB length [bytes]: 1
    Data length [bytes]: 1
    [Response in: 1217557]
URB setup
    bmRequestType: 0x40
        0... .... = Direction: Host-to-device
        .10. .... = Type: Vendor (0x02)
        ...0 0000 = Recipient: Device (0x00)
    bRequest: 160
    wValue: 0x7f92
    wIndex: 0
    wLength: 1
Leftover Capture Data: 01

0000  00 59 6c ca 00 88 ff ff 53 02 00 10 03 00 00 00   .Yl.....S.......
0010  a5 96 18 56 00 00 00 00 aa 4f 09 00 8d ff ff ff   ...V.....O......
0020  01 00 00 00 01 00 00 00 40 a0 92 7f 00 00 01 00   ........@.......
0030  00 00 00 00 00 00 00 00 00 00 00 00 00 00 00 00   ................
0040  01                                                .

No.     Time           Source                Destination           Protocol Length Info
1217560 2303.888563000 host                  16.0                  USB      65     URB_CONTROL out

Frame 1217560: 65 bytes on wire (520 bits), 65 bytes captured (520 bits) on interface 0
USB URB
    URB id: 0xffff8800ca6c5cc0
    URB type: URB_SUBMIT ('S')
    URB transfer type: URB_CONTROL (0x02)
    Endpoint: 0x00, Direction: OUT
        0... .... = Direction: OUT (0)
        .000 0000 = Endpoint value: 0
    Device: 16
    URB bus id: 3
    Device setup request: relevant (0)
    Data: present (0)
    URB sec: 1444452005
    URB usec: 612603
    URB status: Operation now in progress (-EINPROGRESS) (-115)
    URB length [bytes]: 1
    Data length [bytes]: 1
    [Response in: 1217561]
URB setup
    bmRequestType: 0x40
        0... .... = Direction: Host-to-device
        .10. .... = Type: Vendor (0x02)
        ...0 0000 = Recipient: Device (0x00)
    bRequest: 160
    wValue: 0xe600
    wIndex: 0
    wLength: 1
Leftover Capture Data: 01

0000  c0 5c 6c ca 00 88 ff ff 53 02 00 10 03 00 00 00   .\l.....S.......
0010  a5 96 18 56 00 00 00 00 fb 58 09 00 8d ff ff ff   ...V.....X......
0020  01 00 00 00 01 00 00 00 40 a0 00 e6 00 00 01 00   ........@.......
0030  00 00 00 00 00 00 00 00 00 00 00 00 00 00 00 00   ................
0040  01                                                .

No.     Time           Source                Destination           Protocol Length Info
1217562 2303.890904000 host                  16.0                  USB      66     URB_CONTROL out

Frame 1217562: 66 bytes on wire (528 bits), 66 bytes captured (528 bits) on interface 0
USB URB
    URB id: 0xffff8800ca6c5b40
    URB type: URB_SUBMIT ('S')
    URB transfer type: URB_CONTROL (0x02)
    Endpoint: 0x00, Direction: OUT
        0... .... = Direction: OUT (0)
        .000 0000 = Endpoint value: 0
    Device: 16
    URB bus id: 3
    Device setup request: relevant (0)
    Data: present (0)
    URB sec: 1444452005
    URB usec: 614944
    URB status: Operation now in progress (-EINPROGRESS) (-115)
    URB length [bytes]: 2
    Data length [bytes]: 2
    [Response in: 1217563]
URB setup
    bmRequestType: 0x40
        0... .... = Direction: Host-to-device
        .10. .... = Type: Vendor (0x02)
        ...0 0000 = Recipient: Device (0x00)
    bRequest: 160
    wValue: 0x09cb
    wIndex: 0
    wLength: 2
Leftover Capture Data: c105

0000  40 5b 6c ca 00 88 ff ff 53 02 00 10 03 00 00 00   @[l.....S.......
0010  a5 96 18 56 00 00 00 00 20 62 09 00 8d ff ff ff   ...V.... b......
0020  02 00 00 00 02 00 00 00 40 a0 cb 09 00 00 02 00   ........@.......
0030  00 00 00 00 00 00 00 00 00 00 00 00 00 00 00 00   ................
0040  c1 05                                             ..

No.     Time           Source                Destination           Protocol Length Info
1217564 2303.893257000 host                  16.0                  USB      80     URB_CONTROL out

Frame 1217564: 80 bytes on wire (640 bits), 80 bytes captured (640 bits) on interface 0
USB URB
    URB id: 0xffff8800ca6c5e40
    URB type: URB_SUBMIT ('S')
    URB transfer type: URB_CONTROL (0x02)
    Endpoint: 0x00, Direction: OUT
        0... .... = Direction: OUT (0)
        .000 0000 = Endpoint value: 0
    Device: 16
    URB bus id: 3
    Device setup request: relevant (0)
    Data: present (0)
    URB sec: 1444452005
    URB usec: 617297
    URB status: Operation now in progress (-EINPROGRESS) (-115)
    URB length [bytes]: 16
    Data length [bytes]: 16
    [Response in: 1217565]
URB setup
    bmRequestType: 0x40
        0... .... = Direction: Host-to-device
        .10. .... = Type: Vendor (0x02)
        ...0 0000 = Recipient: Device (0x00)
    bRequest: 160
    wValue: 0x0db8
    wIndex: 0
    wLength: 16
Leftover Capture Data: 90e6007410f0120fee00000090e61274

0000  40 5e 6c ca 00 88 ff ff 53 02 00 10 03 00 00 00   @^l.....S.......
0010  a5 96 18 56 00 00 00 00 51 6b 09 00 8d ff ff ff   ...V....Qk......
0020  10 00 00 00 10 00 00 00 40 a0 b8 0d 00 00 10 00   ........@.......
0030  00 00 00 00 00 00 00 00 00 00 00 00 00 00 00 00   ................
0040  90 e6 00 74 10 f0 12 0f ee 00 00 00 90 e6 12 74   ...t...........t

No.     Time           Source                Destination           Protocol Length Info
1217566 2303.895562000 host                  16.0                  USB      80     URB_CONTROL out

Frame 1217566: 80 bytes on wire (640 bits), 80 bytes captured (640 bits) on interface 0
USB URB
    URB id: 0xffff8800ca6c5840
    URB type: URB_SUBMIT ('S')
    URB transfer type: URB_CONTROL (0x02)
    Endpoint: 0x00, Direction: OUT
        0... .... = Direction: OUT (0)
        .000 0000 = Endpoint value: 0
    Device: 16
    URB bus id: 3
    Device setup request: relevant (0)
    Data: present (0)
    URB sec: 1444452005
    URB usec: 619602
    URB status: Operation now in progress (-EINPROGRESS) (-115)
    URB length [bytes]: 16
    Data length [bytes]: 16
    [Response in: 1217567]
URB setup
    bmRequestType: 0x40
        0... .... = Direction: Host-to-device
        .10. .... = Type: Vendor (0x02)
        ...0 0000 = Recipient: Device (0x00)
    bRequest: 160
    wValue: 0x0dc8
    wIndex: 0
    wLength: 16
Leftover Capture Data: a0f0000000e490e613f000000090e614

0000  40 58 6c ca 00 88 ff ff 53 02 00 10 03 00 00 00   @Xl.....S.......
0010  a5 96 18 56 00 00 00 00 52 74 09 00 8d ff ff ff   ...V....Rt......
0020  10 00 00 00 10 00 00 00 40 a0 c8 0d 00 00 10 00   ........@.......
0030  00 00 00 00 00 00 00 00 00 00 00 00 00 00 00 00   ................
0040  a0 f0 00 00 00 e4 90 e6 13 f0 00 00 00 90 e6 14   ................

No.     Time           Source                Destination           Protocol Length Info
